:020000040040BA
:10000000582B402045114000F5114000F5114000EB
:10001000F5114000F5114000F5114000000000000E
:10002000000000000000000000000000F51140008A
:10003000F511400000000000F5114000F5114000EE
:10004000F5114000F5114000F5114000F511400098
:10005000F5114000F5114000F5114000F511400088
:10006000F511400000000000D1094000E9094000FE
:10007000010A4000F5114000FD174000F511400055
:10008000190A4000310A4000F5114000F511400006
:10009000F5114000F5114000F5114000F511400048
:1000A000F5114000F5114000F5114000F511400038
:1000B000F5114000F5114000F5114000F511400028
:1000C000F5114000F5114000F5114000F511400018
:1000D00000000000F511400000000000F511400094
:1000E000F5114000F5114000F5114000F5114000F8
:1000F000F5114000F5114000F5114000F5114000E8
:10010000F5114000F5114000F5114000F5114000D7
:10011000F511400000000000000000000000000099
:10012000F5114000F5114000F5114000F5114000B7
:10013000F511400000000000F5114000F5114000ED
:1001400010B5054C237833B9044B13B10448AFF311
:1001500000800123237010BDBC0940200000000076
:100160008C6640000C4B43B10C480D4910B5AFF301
:1001700000800C48036823B910BD0A48036833B9EE
:100180007047094B002BF7D0BDE810401847064BCD
:10019000002BF5D0184700BF000000008C6640001F
:1001A000C00940208C6640000000000080B582B08D
:1001B00000AF78607B68072B31D801A252F823F09A
:1001C0001D024000E1014000E9014000F101400052
:1001D000F901400001024000090240001302400002
:1001E0000020114B98471AE001200F4B984716E06A
:1001F00000200E4B984712E010200C4B98470EE061
:1002000020200A4B98470AE03E210020084B9847DF
:1002100005E03E210120064B984700E000BF00BFEB
:100220000837BD4680BD00BF490B4000B50B4000FC
:10023000250C400080B582B000AF78607B68072B4A
:1002400026D801A252F823F0690240006D02400056
:100250006D0240007F0240007F0240007F024000AC
:100260007F0240007F024000012312E00B4B9847C1
:100270000346002B14BF01230023DBB209E0084B27
:1002800098470346002B14BF01230023DBB200E094
:10029000002318460837BD4680BD00BF810B4000D3
:1002A0009D0C400080B483B000AF78607B68072B62
:1002B00025D801A252F823F0D9024000DF02400005
:1002C000E5024000EB024000EF024000F302400074
:1002D000F7024000FB0240004FF4FA4310E04FF4F5
:1002E00000430DE04FF400430AE0084B08E0084BE0
:1002F00006E0084B04E0074B02E0064B00E0002359
:1003000018460C37BD465DF8047B704700093D0078
:1003100000127A00001BB70080B582B000AF034620
:10032000FB7100BFFB791846054B9847034683F0E5
:100330000103DBB2002BF5D100BF0837BD4680BDFD
:100340003502400080B586B000AFF8607A603B604F
:100350000B46FB727B68002B07D13B68002B04D156
:10036000FB684FF470021A6019E0FB7A18460E4BD6
:10037000984702467B68B2FBF3F37B617B693A687E
:1003800002FB03F37B613B68013B1A04074B1340FC
:100390007A68D2B2134343F47C52FB681A6000BF00
:1003A0001837BD4680BD00BFA50240000000FF0712
:1003B00080B582B000AF786039603B68002B08D10F
:1003C000094B9847094A7B681B6843F000539362C6
:1003D00005E0064A7B681B6843F48033D36100BFA5
:1003E0000837BD4680BD00BFB90C400000060E4076
:1003F00080B582B000AF78607B68002B03D1054BDD
:100400009847034602E0044B9847034618460837CE
:10041000BD4680BDD50C4000F10C400080B582B0D7
:1004200000AF0346FB71FB79033B042B08D8FB7933
:100430001846064B9847FB791846054B984700E04D
:1004400000BF00BF0837BD4680BD00BFAD01400002
:100450001903400080B582B000AF786000BF7868B3
:10046000044B98470346002BF9D000231846083761
:10047000BD4680BDF103400080B500AF0620054BAE
:100480009847024613469B0013449A0013441846AB
:1004900080BD00BFA502400080B500AF024B984769
:1004A0000346184680BD00BF7904400090B583B074
:1004B00000AF1348134B98470620134B9847381D3D
:1004C000192301220621114CA0473B1D002118468B
:1004D0000F4B984700200F4B984702200E4B984730
:1004E00000200E4B98470E4B98470E4B98470346FB
:1004F0001846044B984700BF0C37BD4690BD00BF5F
:1005000000A3E111651340001D04400045034000B5
:10051000B103400055044000490A4000C50A4000AC
:10052000FD1140009904400080B485B000AFF86030
:10053000B9607A607B68002B03D0FB68BA685A66A2
:1005400002E0FB68BA681A6600BF1437BD465DF862
:10055000047B704780B483B000AF786039607B68FB
:100560003A681A6300BF0C37BD465DF8047B7047DC
:1005700080B483B000AF786039607B683A685A63B2
:1005800000BF0C37BD465DF8047B704780B487B070
:1005900000AFF860B9607A60FB687A685A64BB683B
:1005A000B3F1C05F4AD0B3F1C05F08D8B3F1006FB8
:1005B00016D0B3F1805F2CD0002B69D064E0B3F18A
:1005C000205F65D0B3F1205F03D8B3F1005F4AD05C
:1005D0005AE0B3F1405F5BD0B3F1605F58D053E0B5
:1005E000FB681B6F7B61FB681A6F7B68D9437B6973
:1005F0000B401A40FB681A67FB685B6F7B61FB6806
:100600005A6F7B68D9437B690B401A40FB685A6775
:100610003AE0FB681B6F7B617A687B691A43FB6871
:100620001A67FB685B6F7B61FB685A6F7B68D94315
:100630007B690B401A40FB685A6725E0FB681B6F1B
:100640007B61FB681A6F7B68D9437B690B401A405A
:10065000FB681A67FB685B6F7B617A687B691A438A
:10066000FB685A6710E0FB681B6F7B617A687B69E7
:100670001A43FB681A67FB685B6F7B617A687B696A
:100680001A43FB685A6700BFFB687A685A6000E04B
:1006900000BF1C37BD465DF8047B704780B584B051
:1006A00000AFF860B9607A60B968F868194B98478C
:1006B0007B6803F001031A46B968F868164B98473F
:1006C0007B6803F00A03002B03D0FB68BA681A6248
:1006D00002E0FB68BA685A627B6803F00203002BF1
:1006E00004D0FB68BA68C3F8802008E07B6803F098
:1006F0000803002B03D0FB68BA68C3F88420FB68AA
:10070000BA685A61FB68BA681A6000BF1037BD4604
:1007100080BD00BF310840002905400080B584B08D
:1007200000AFF860B9607A603B60B968F868124B56
:100730009847BA69B968F868104B98473B68002B2E
:1007400003D0FB68BA681A6502E0FB68BA685A65AC
:100750007B68002B03D0FB68BA681A6302E0FB6871
:10076000BA685A63FB68BA681A61FB68BA681A60AB
:1007700000BF1037BD4680BD31084000290540004C
:1007800080B483B000AF786039607B689A6B3B6857
:100790001340002B01D1002300E0012318460C3741
:1007A000BD465DF8047B704780B485B000AFF8604B
:1007B000B9607A607B6803F01003002B20D0FB68DF
:1007C000BA68C3F8B0207B6803F02003002B04D084
:1007D000FB68BA68C3F8D42003E0FB68BA68C3F8C2
:1007E000D0207B6803F04003002B04D0FB68BA687C
:1007F000C3F8C02008E0FB68BA68C3F8C42003E06F
:10080000FB68BA68C3F8B42000BF1437BD465DF872
:10081000047B704780B483B000AF786039607B6838
:100820003A681A6400BF0C37BD465DF8047B704718
:1008300080B483B000AF786039607B683A685A64EE
:1008400000BF0C37BD465DF8047B704780B483B0B1
:1008500000AF78607B68DB6C18460C37BD465DF8EE
:10086000047B704780B483B000AF78607B689B6C7A
:1008700018460C37BD465DF8047B704780B584B0E0
:1008800000AF786039607868264B9847F8607868E0
:10089000254B98470246FB681340FB60FB68002B22
:1008A0003CD00023BB6034E0204ABB681B011344EA
:1008B0001A683B689A4226D11C4ABB681B01134444
:1008C00004331A68FB681340002B1CD0174ABB681E
:1008D0001B0113440C331B681449BA6812010A4403
:1008E00010681249BA6812010A44043212681146AB
:1008F00098470E4ABB681B01134404331B68DB4353
:10090000FA681340FB60BB680133BB60BB68062B11
:1009100003D8FB68002BC7D100E000BF00BF103731
:10092000BD4680BD4D08400065084000D809402004
:1009300080B586B000AFF860B9607A603B60214B4B
:100940001B68062B01D9012338E00023FB7511E059
:10095000FB7D1B011C4A13443B613B691A68BB6861
:100960009A4204D13B695A687B689A4208D0FB7D61
:100970000133FB75FA7D134B1B689A42E8D900E0FE
:1009800000BF3B69BA681A603B697A685A603B6984
:100990003A689A603B693A6ADA60FA7D094B1B68EB
:1009A00001339A4204D1074B1B680133054A136097
:1009B0003A687968F868054B984700231846183755
:1009C000BD4680BD480A4020D8094020A907400004
:1009D00080B500AF0A210248024B984700BF80BD96
:1009E000000E0E407D08400080B500AF0B2102488C
:1009F000024B984700BF80BD00100E407D084000AC
:100A000080B500AF0C210248024B984700BF80BD63
:100A100000120E407D08400080B500AF1021024852
:100A2000024B984700BF80BD00140E407D08400077
:100A300080B500AF11210248024B984700BF80BD2E
:100A400000160E407D08400080B483B000AF78608F
:100A50007B68013B032B1AD801A252F823F000BF98
:100A6000710A4000770A40007F0A4000870A400070
:100A700000237B600EE04FF480737B600AE04FF44C
:100A800040737B6006E04FF400737B6002E000235C
:100A90007B6000BF0A490A4B1B6B23F440727B68E2
:100AA00013430B6300BF064B9B6E03F00803002B40
:100AB000F9D000BF0C37BD465DF8047B704700BF1E
:100AC00000060E4080B485B000AF78601D491D4B14
:100AD0001B6B23F070027B6813430B634FF480534E
:100AE000FB6007E0FB68002B01D1012323E0FB68DA
:100AF000013BFB60134B9B6E03F00803002BF1D00E
:100B0000104A104B1B6B23F0030343F002031363E3
:100B10004FF48053FB6007E0FB68002B01D10123F9
:100B200009E0FB68013BFB60064B9B6E03F008038A
:100B3000002BF1D0002318461437BD465DF8047B26
:100B4000704700BF00060E4080B483B000AF7860ED
:100B50007B68012B05D10749064B9A68064B134366
:100B60008B60044B054A1A6000BF0C37BD465DF828
:100B7000047B704710180E40000010A5080000A567
:100B800080B400AF094B5B6903F08003002B07D0F2
:100B9000074B9B6E03F08003002B01D0012300E084
:100BA00000231846BD465DF8047B704710180E40C0
:100BB00000060E4080B483B000AF78601549154B35
:100BC0001A6A154B13430B6200BF124B9B6E03F462
:100BD0000033002BF9D00F490E4B1A6A0F4B13400C
:100BE0007A68134343F45C130B6200BF094B9B6E9E
:100BF00003F40033002BF9D00649064B1A6A084B60
:100C0000134043F45C130B6200BF0C37BD465DF824
:100C1000047B704700060E40080037008FFFC8FFB6
:100C2000FFFFC8FE80B483B000AF786039607B6896
:100C3000002B08D01349134B1B6A134A1A40134B5D
:100C400013430B6218E00F490E4B1A6A104B134006
:100C50003A68120292B21A430E4B13430B6200BF62
:100C6000084B9B6E03F00103002BF9D00549054B9F
:100C70001A6A094B13430B6200BF0C37BD465DF87F
:100C8000047B704700060E40FCFFC8FE02003701DF
:100C9000FCFFC8FF010037000000370180B400AF3F
:100CA000044B9B6E03F480331846BD465DF8047B0D
:100CB000704700BF00060E4080B400AF044B4FF0F9
:100CC00000529A6200BFBD465DF8047B704700BFCA
:100CD00000060E4080B400AF044B9B6E03F002038D
:100CE0001846BD465DF8047B704700BF00060E4005
:100CF00080B400AF044B9B6E03F040031846BD4622
:100D00005DF8047B704700BF00060E4080B483B0DE
:100D100000AF78607B683F2B01D901232FE07B680F
:100D20001F2B13D8194B9A6901217B6801FA03F331
:100D30001A4001217B6801FA03F39A421ED0134A3C
:100D400001217B6801FA03F3136117E07B68203B04
:100D50007B600E4BD3F8082101217B6801FA03F375
:100D60001A4001217B6801FA03F39A4206D0074A30
:100D700001217B6801FA03F3C2F800310023184611
:100D80000C37BD465DF8047B704700BF00060E407F
:100D900080B483B000AF78607B685B6903F4007354
:100DA000002B14BF01230023DBB218460C37BD46CD
:100DB0005DF8047B704780B483B000AF78600B4669
:100DC000FB707B685B6903F00203002B01D10123F8
:100DD00003E0FA787B68DA61002318460C37BD46D9
:100DE0005DF8047B704780B483B000AF78603960F1
:100DF0007B685B6903F00103002B01D1012305E04F
:100E00007B689B69DAB23B681A70002318460C377E
:100E1000BD465DF8047B704780B489B000AFF860D0
:100E2000B9607A60BB681A017B689A4202D81023C5
:100E3000FB6101E00823FB617B68DA00FB69B968AC
:100E400001FB03F35B081A44FB69B96801FB03F378
:100E5000B2FBF3F3BB61BB69DB087B61BB6903F0E9
:100E600007033B617B69002B03D07B69B3F5803FAF
:100E700001D301230FE0FB69082B05D1FB685B68F8
:100E800043F40022FB685A603B691A047B691A43E9
:100E9000FB681A62002318462437BD465DF8047BC0
:100EA0007047000080B582B000AF786078680D4B65
:100EB00098477B6800225A607B6800225A627B68F0
:100EC00000229A627868084B98477868074B9847E1
:100ED0007868074B98477868064B984700BF0837F3
:100EE000BD4680BD9D104000970F4000CB0F4000D5
:100EF000FD0F40001910400080B584B000AFF860CD
:100F0000B9607A60F8681A4B98471A4B00221A6049
:100F1000BB68002B09D0BB681B687A681946F86863
:100F2000154B98470346002B01D001231BE0BB68FB
:100F30005A68BB689B681A43BB681B691A43BB6845
:100F4000DB681A430B4B1B6813430A4A1360094BB7
:100F50001B68084A1360FB685A68064B1B681A43F3
:100F6000FB685A60002318461037BD4680BD00BF9D
:100F7000A50E40004C0A4020190E400080B483B0FA
:100F800000AF78607B6840221A6000BF0C37BD4616
:100F90005DF8047B704780B483B000AF78607B68F5
:100FA00088221A6000BF0C37BD465DF8047B70478D
:100FB00080B483B000AF78607B6810221A6000BFF5
:100FC0000C37BD465DF8047B704780B483B000AF3A
:100FD00078607B6824221A6000BF0C37BD465DF83C
:100FE000047B704780B483B000AF78607B685B6936
:100FF00018460C37BD465DF8047B704780B483B05B
:1010000000AF78607B684FF480721A6000BF0C37C5
:10101000BD465DF8047B704780B483B000AF786054
:101020007B684FF400221A6000BF0C37BD465DF8A4
:10103000047B704780B483B000AF786039607B6810
:101040005B6903F00203002B01D1012305E03B683B
:10105000C3F308027B68DA61002318460C37BD46EB
:101060005DF8047B704780B483B000AF786039606E
:101070007B685B6903F00103002B01D1012306E0CB
:101080007B689B69C3F308023B681A60002318461B
:101090000C37BD465DF8047B7047000080B483B018
:1010A00000AF78607B68044AC3F8E42000BF0C37C7
:1010B000BD465DF8047B70470041535580B483B052
:1010C00000AFEFF310837B607B68002B0CBF012324
:1010D0000023DBB23B6072B6BFF35F8F044B00228C
:1010E0001A703B6818460C37BD465DF8047B7047A4
:1010F0000A00402080B483B000AF78607B68002B8A
:1011000014BF01230023DBB218460C37BD465DF83F
:10111000047B704780B582B000AF78607868074B79
:1011200098470346002B05D0054B01221A70BFF3E8
:101130005F8F62B600BF0837BD4680BDF510400026
:101140000A00402080B584B000AF1E4BFB601E4BF0
:10115000BB60FA68BB689A420CD007E0BB681A1DF6
:10116000BA60FA68111DF96012681A60BB68174A04
:101170009342F3D3164BBB6004E0BB681A1DBA6000
:1011800000221A60BB68134A9342F6D3124BFB60ED
:10119000124AFB6823F07F039360114B98477860F5
:1011A000104A104B1B6843F470031360BFF34F8F5A
:1011B000BFF36F8F78680C4B98470C4B98470C4BDC
:1011C0009847FEE78C66400000004020BC094020A4
:1011D000BC094020540B40200000400000ED00E01E
:1011E000BD10400088ED00E0151140001D1E4000BC
:1011F000291A400080B400AFFEE7000080B400AFC1
:10120000524B1B6B03F00303012B14D0012B02D3B1
:10121000022B38D07AE04E4B5B6903F08003002B41
:1012200004D04C4B4FF400421A606FE0494B4FF42E
:10123000FA421A606AE0454B1B6A03F08073002B88
:1012400003D0444B444A1A6060E0424B434A1A6060
:101250003E4B1B6A03F07003102B04D0202B08D0E8
:10126000002B0ED00EE03B4B1B685B00394A13602D
:1012700008E0384B1A6813465B001344354A136084
:1012800000E000BF42E0314B1B6A03F08073002B8B
:1012900003D0304B304A1A601CE02E4B2F4A1A60A4
:1012A0002A4B1B6A03F07003102B04D0202B08D0AC
:1012B000002B0ED00EE0274B1B685B00254A136005
:1012C00008E0244B1A6813465B001344214A13605C
:1012D00000E000BF1D4B1B6B03F00303022B14D176
:1012E0001A4B9B6A1B0CC3F30A030133194A126899
:1012F00002FB03F3174A1360144B9B6ADBB2154AD7
:101300001268B2FBF3F3134A136000BF0F4B1B6B61
:1013100003F07003702B08D10E4B1B68104AA2FB20
:1013200003235B080B4A13600AE0084B1B6B1B0985
:1013300003F00703074A126822FA03F3054A136011
:1013400000BFBD465DF8047B704700BF00060E403D
:1013500010180E400C004020001BB70000093D0093
:10136000ABAAAAAA80B483B000AF78607B68194AA0
:10137000934204D8184B4FF080621A6023E07B68D8
:10138000164A934203D8144B154A1A601BE07B6837
:10139000144A934203D8104B134A1A6013E07B6837
:1013A000124A934203D80C4B114A1A600BE07B6837
:1013B000104A934204D8084B4FF004221A6002E00E
:1013C000054B0D4A1A6000BF0C37BD465DF8047B23
:1013D000704700BFFF2C3101000C0E40FF59620224
:1013E00000010004FF86930300020004FFB3C4045D
:1013F00000030004FFE0F5050005000480B485B09B
:1014000000AF7860104BFB60104B1B68002B02D1C3
:101410000E4B0F4A1A600D4B1B68BB60BA687B68A5
:101420001A44FB689A4202DD4FF0FF3306E0074B97
:101430001A687B681344054A1360BB681846143762
:10144000BD465DF8047B7047FCFF4520500A4020F4
:10145000582D402080B483B000AF0346FB7109498A
:1014600097F907305B09FA7902F01F02012000FAB0
:1014700002F241F8232000BF0C37BD465DF8047B23
:10148000704700BF00E100E080B483B000AF0346C6
:101490003960FB7197F90730002B0BDA0D49FB79A6
:1014A00003F00F03043B3A68D2B25201D2B20B44AC
:1014B0001A7609E0084997F907303A68D2B2520122
:1014C000D2B20B4483F8002300BF0C37BD465DF851
:1014D000047B704700ED00E000E100E080B483B0E1
:1014E00000AF78607B68072B25D801A252F823F063
:1014F00011154000171540001D1540002315400030
:10150000271540002B1540002F15400033154000D3
:101510004FF4FA4310E04FF400430DE04FF4004362
:101520000AE0084B08E0084B06E0084B04E0074BD4
:1015300002E0064B00E0002318460C37BD465DF87C
:10154000047B704700093D0000127A00001BB700C1
:1015500080B500AF0620054B9847024613469B0016
:1015600013449A001344184680BD00BFDD144000A8
:1015700080B500AF024B98470346184680BD00BFB8
:101580005115400080B500AF024B984703465B08F9
:10159000184680BD5115400080B582B000AF78601C
:1015A0007868034B984700BF0837BD4680BD00BF31
:1015B0000D0D400080B582B000AF78600B46FB7027
:1015C0007B68364A93420AD100BFFB781946786897
:1015D000334B98470346002BF7D101235AE07B6831
:1015E000304A93420AD100BFFB78194678682C4BE9
:1015F00098470346002BF7D101234BE07B682A4A2A
:1016000093420AD100BFFB7819467868244B98476B
:101610000346002BF7D101233CE07B68234A934229
:101620000AD100BFFB78194678681D4B98470346DE
:10163000002BF7D101232DE07B681D4A93420AD18C
:1016400000BFFB78194678681A4B98470346002B71
:10165000F7D101231EE07B68174A93420AD100BFED
:10166000FB7819467868134B98470346002BF7D14F
:1016700001230FE07B68114A93420AD100BFFB7837
:10168000194678680B4B98470346002BF7D1012386
:1016900000E0002318460837BD4680BD00080E4014
:1016A000B70D4000000A0E40001A0E40001C0E400C
:1016B00000400240351040000080024000C002405F
:1016C00080B584B000AF786039600023FB607B6830
:1016D000344A934207D100BF39687868324B984743
:1016E0000346002BF8D17B68304A934207D100BFF4
:1016F000396878682C4B98470346002BF8D17B68F3
:101700002B4A934207D100BF39687868264B984727
:101710000346002BF8D17B68264A934207D100BFCD
:1017200039687868204B98470346002BF8D17B68CE
:10173000214A93420DD100BF07F10C031946786886
:101740001E4B98470346002BF6D1FB68DAB23B6884
:101750001A707B681A4A93420DD100BF07F10C033F
:1017600019467868154B98470346002BF6D1FB685D
:10177000DAB23B681A707B68124A93420DD100BFFF
:1017800007F10C03194678680C4B98470346002B69
:10179000F6D1FB68DAB23B681A7000BF1037BD465D
:1017A00080BD00BF00080E40E70D4000000A0E405B
:1017B000001A0E40001C0E4000400240671040001E
:1017C0000080024000C0024080B582B000AF786067
:1017D00039604FF080510648064B98474FF48071AE
:1017E0000548044B984700BF0837BD4680BD00BF81
:1017F00000140E404118400000120E4080B582B027
:1018000000AF0A480A4B984778607B6803F00103F1
:10181000002B07D0FB1C19460448064B9847064886
:10182000064B984700BF0837BD4680BD0080024088
:10183000E50F4000C1164000EC0A4020D1194000DD
:1018400080B582B000AF7860396039687868094B3C
:1018500098470346002B04D039687868064B9847B0
:1018600003E039687868054B984700BF0837BD46E4
:1018700080BD00BF81074000710540005505400054
:1018800090B583B002AF0A20104B984709224FF45D
:1018900000610F480F4B98474FF400610C480E4B06
:1018A00098470E4B009350234FF400620A210848DA
:1018B0000B4CA0470A200B4B984701210A200A4BEA
:1018C000984700BF0437BD4690BD00BF0D0D4000D6
:1018D000000E0E409D06400015084000C91740004C
:1018E00031094000551440008914400090B585B07E
:1018F00002AF78600C20074B98477A68002300936A
:1019000000234FF480710448044CA04700BF0C37FB
:10191000BD4690BD0D0D400000120E401D07400059
:1019200080B586B000AF0B201F4B98470A201E4B96
:10193000984710224FF000511C481D4B98474FF418
:1019400000124FF000611B48194B98471A4A1A4B76
:10195000D3F8143143F01003C2F814313B4600228F
:101960001A605A609A60DA601A615A614FF4E13382
:101970003B60C0237B604FF40063BB600E200A4BCA
:1019800098470E4B984702463B4619460C480D4B6C
:1019900098470B480C4B984709480C4B984700BF99
:1019A0001837BD4680BD00BF9915400000100E409D
:1019B0008D054000000E0E40008008408515400057
:1019C00000800240F90E40007D0F4000B10F400042
:1019D00080B584B000AF78600023FB600023BB605B
:1019E00011E0BB68002B0AD17A68FB6813441B78AE
:1019F00019460A480A4B9847FB680133FB600748C1
:101A0000084B9847B8607A68FB6813441B78002B32
:101A1000E7D1FB6818461037BD4680BD0080024004
:101A2000B5154000910D40002DE9F04F83B000AF97
:101A3000294B9847294B4FF400425A600120284B0C
:101A40009847284B9847284B9847284A28492948BF
:101A5000294B98472748294B9847294B98470346D5
:101A600019464FF000020B4614464FEA441B4BEA5E
:101A7000D36B4FEA431A53465C465B1A64EB02048D
:101A80004FEA840949EA93794FEA830843464C4672
:101A90005B1844EB0204E2007A607A6842EA53720F
:101AA0007A60DB003B60D7E900341946224641F2F8
:101AB0002B734FF00004CD1842EB04062846314644
:101AC000104C41F22C724FF00003A04703460C4625
:101AD00018460D4B9847B8E7AD04400050180E402B
:101AE000ED1840008118400021194000C4634000F7
:101AF000D0634000EC0A4020091F4000D11940008B
:101B0000711540000D1B40000100402053B94AB937
:101B1000002908BF00281CBF4FF0FF314FF0FF30F5
:101B200000F07AB9ADF1080C6DE904CE00F006F8CA
:101B3000DDF804E0DDE9022304B070472DE9F04749
:101B40008C460D460446089E002B51D18A4217460A
:101B50006DD9B2FA82FEBEF1000F0BD0CEF1200C8F
:101B600001FA0EF520FA0CFC02FA0EF74CEA050C0D
:101B700000FA0EF44FEA174A250CBCFBFAF81FFADC
:101B800087F90AFB18CC45EA0C4508FB09F3AB4280
:101B90000AD9ED1908F1FF3280F02381AB4240F2FF
:101BA0002081A8F102083D44ED1AA4B2B5FBFAF079
:101BB0000AFB105544EA054400FB09F9A14509D97F
:101BC000E41900F1FF3380F00A81A14540F207815A
:101BD00002383C44A4EB090440EA08400021002EEE
:101BE00061D024FA0EF4002334607360BDE8F087FE
:101BF0008B4207D9002E54D0002186E821000846E8
:101C0000BDE8F087B3FA83F1002940F08E80AB4243
:101C100002D3824200F2FA80841A65EB03050120A8
:101C2000AC46002E3FD086E81010BDE8F08712B910
:101C30000127B7FBF2F7B7FA87FEBEF1000F34D1E8
:101C4000EB1B3A0C1FFA87FC0121B3FBF2F8250CC1
:101C500002FB183345EA03450CFB08F3AB4207D9F6
:101C6000ED1908F1FF3002D2AB4200F2D18080467C
:101C7000ED1AA3B2B5FBF2F002FB105543EA05449E
:101C80000CFB00FCA44507D9E41900F1FF3302D294
:101C9000A44500F2B8801846A4EB0C0440EA0840C2
:101CA0009DE731463046BDE8F087CEF1200405FAC5
:101CB0000EF307FA0EF720FA04F83A0C25FA04F4AA
:101CC00048EA0308B4FBF2F14FEA184502FB11445D
:101CD0001FFA87FC45EA044501FB0CF3AB4200FA0E
:101CE0000EF409D9ED1901F1FF3080F08A80AB4282
:101CF00040F2878002393D44EB1A1FFA88F5B3FBA6
:101D0000F2F002FB103345EA034500FB0CF3AB4253
:101D100007D9ED1900F1FF386FD2AB426DD9023807
:101D20003D44EB1A40EA01418FE7C1F1200722FA56
:101D300007F88B4005FA01F448EA030320FA07FE8E
:101D40004FEA134CFD404EEA040EB5FBFCF94FEA96
:101D50001E440CFB19551FFA83F844EA054509FB9C
:101D600008F4AC4202FA01F200FA01FA08D9ED18BF
:101D700009F1FF3043D2AC4241D9A9F102091D4417
:101D80002D1B1FFA8EFEB5FBFCF00CFB10554EEA26
:101D9000054400FB08F8A04507D9E41800F1FF3519
:101DA00029D2A04527D902381C4440EA0940A4EBB7
:101DB0000804A0FB02894C45C6464D4615D312D0F7
:101DC00056B1BAEB0E0364EB050404FA07F7CB40F7
:101DD0001F43CC40376074600021BDE8F08718468F
:101DE000F8E69046E0E6C245EAD2B8EB020E69EBAF
:101DF00003050138E4E72846D7E7404691E78146E6
:101E0000BEE7014678E702383C4445E7084608E764
:101E1000A8F102083D442BE7704700BF70B50F4E94
:101E20000F4D761BB61018BF002405D0013455F8AD
:101E3000043B9847A642F9D10A4E0B4D761B04F09D
:101E40000FFCB61018BF002406D0013455F8043B2F
:101E50009847A642F9D170BD70BD00BF6C664000C6
:101E60006C664000746640006C66400070B4860783
:101E700046D0541E002A41D0CAB2034602E014F1F3
:101E8000FF343BD303F8012B9D07F8D1032C2ED947
:101E9000CDB245EA05250F2C45EA054519D903F1D0
:101EA00010022646103E0F2E42F8105C42F80C5CE1
:101EB00042F8085C42F8045C02F11002F2D8A4F186
:101EC000100222F00F0204F00F041032032C13440E
:101ED0000DD91E462246043A032A46F8045BFAD876
:101EE000221F22F003020432134404F003042CB135
:101EF000C9B21C4403F8011B9C42FBD170BC704763
:101F000014460346C2E700BF0EB4F0B59CB021AB47
:101F10000F4953F8042B019305466FF000440868FD
:101F200002954FF402774FF6FF7602A90695ADF8B9
:101F3000147004940794ADF8166000F00BF8029B3F
:101F400000221A701CB0BDE8F04003B0704700BF1B
:101F5000100040202DE9F04FC3B00C460B91924683
:101F60000F930C9002F004FA03681A93184603F0DA
:101F7000C7F8A3891990190603D52369002B01F02E
:101F8000018000230DF1C80913931493159327932F
:101F9000269318931B930993CDF89490C8461693F3
:101FA00017939AF800305446E3B1252B02D119E07B
:101FB000252B03D014F8013F002BF9D1A4EB0A051F
:101FC00085B1269B279AC8F800A001332A44072B25
:101FD000C8F80450279226937FDC08F10808099B73
:101FE0002B4409932378002B7FD000231A468DF8C9
:101FF000773019460D939B464FF0FF3063780A9077
:1020000004F1010A0AF1010AA3F12000582800F2A4
:10201000C083DFE810F03802BE03BE034002BE03F7
:10202000BE03BE03BE03BE03BE0345020302BE03DE
:102030005D006B02BE0386029C039C039C039C0311
:102040009C039C039C039C039C03BE03BE03BE0332
:10205000BE03BE03BE03BE03BE03BE03BE033703FF
:102060005703BE035703BE03BE03BE03BE0397035D
:10207000BE03BE03AC03BE03BE03BE03BE03BE036A
:102080005902BE03BE031E03BE03BE03BE03BE034E
:10209000BE03BE03BE03BE03BE03BE03C602DB0215
:1020A0005703570357038B02DB02BE03BE039002A4
:1020B000BE039D02CC01B4020802BE03E101BE03CF
:1020C0007E00BE03BE030D020D980F9340420D909B
:1020D0004BF0040B9AF8003094E725AA0B990C9862
:1020E00003F07CF840B9C84679E7279B23B10C98E8
:1020F0000B9925AA03F072F80B9B9B8913F0400FF4
:10210000099B18BF4FF0FF330993099843B0BDE80E
:10211000F08F1BF0200F119340F0DD810F9A1BF020
:10212000100F134640F06C851BF0400F00F06885DF
:1021300014880432002501230F9200278DF8777050
:102140000A994A1C00F065822BF08002079254EA3B
:10215000050240F06482002940F03984002B40F0F1
:10216000D4841BF001030E9300F0028642AE3023AC
:1021700006F8413D0A9B0E9A9342B8BF1346089356
:102180000023129317B1089B01330893079B13F0A8
:102190000203109302D0089B02330893079B13F0AD
:1021A000840540F00D830D9B089AA3EB020BBBF155
:1021B000000F40F30583BBF1100F279C269A29DD01
:1021C00043462146A84610270C9C0B9D06E0ABF128
:1021D000100BBBF1100F03F1080318DD0132B748F3
:1021E00026921031072A279183E88100EFDD25AA86
:1021F0002946204602F0F2FF00287FF47DAFABF1C4
:10220000100BBBF1100F2799269A4B46E6DC45468A
:102210000C4698460132A94B26925C44072A279423
:1022200088E8080800F395849DF8777008F108089D
:1022300077B1269B013301340DF177010122072B81
:102240002794269388E8060000F3D88308F108084D
:10225000109B6BB1269B013302341EA90222072B6F
:102260002794269388E8060000F3D38308F1080832
:10227000802D00F013830A9B0E9A9F1A002F36DDE3
:10228000102F269B8E4D27DD42462146B0464FF04B
:10229000100B2E460C9C0B9D04E0103F102F02F1FA
:1022A000080215DD01331031072B2791269382E8B0
:1022B0004008F2DD25AA2946204602F08FFF0028BB
:1022C0007FF41AAF103F102F2799269B4A46E9DC6E
:1022D00035460C464646904601333C44072B27942E
:1022E000269388E8A00000F37E8308F10808079B86
:1022F000DF0500F16782269B0E99C8F80060013364
:102300000C44072B2794C8F80410269300F34A8343
:1023100008F10808079B5B073AD50D9B089A9D1AA0
:10232000002D35DD102D269B20DD10260C9FDDF8BD
:102330002CB004E0103D102D08F1080816DD013323
:102340005E4A26931034072B279488E84400F1DD79
:1023500025AA5946384602F041FF00287FF4CCAE4A
:10236000103D102D279C269BC846E8DC0133534ABC
:1023700026932C44072B279488E8240008DD25AAFF
:102380000B990C9802F02AFF00287FF4B5AE279C29
:10239000099B0D9A08998A42ACBF9B185B18099358
:1023A000002C40F00A8300232693C846F9E51193D8
:1023B0001BF0200340F0E2811BF0100240F02C845F
:1023C0001BF0400300F028840F9913460A4604329C
:1023D0000C880F920025B0E60F9A1193166800241E
:1023E0008DF87740151D002E00F0A5860A9A531C23
:1023F00000F007862146304602F07AFA002800F005
:10240000DF86831B0E930A940F95CDF81CB023EA48
:10241000E373089312949DF87770B3E69AF800304E
:1024200001222B21EEE54BF0200B9AF80030E9E574
:102430001193002A40F08D87224B18931BF0200F38
:1024400040F011810F9A1BF0100F134640F0DF830C
:102450001BF0400F00F0DB83043314880F9300253A
:102460001BF0010F00F00C8154EA050300F0088115
:1024700030239DF844208DF878308DF879204BF08A
:10248000020B022359E69AF8003000297FF4BAAD16
:1024900001222021B6E54BF0010B9AF80030B1E59E
:1024A0000F9C23680D9318460028234603F104036C
:1024B000FFF60AAE0F939AF80030A3E520644000BF
:1024C00030644000006440004BF0100B1BF0200F04
:1024D00011933FF423AE0F9D073525F0070303F159
:1024E0000802D3E900450F92012326E69AF800304E
:1024F0002A2B0AF1010400F01F87A3F130000928FC
:10250000A24600F2AB8600231C461AF8013B04EBFE
:10251000840400EB4404A3F130000928F5D90A949F
:1025200072E54BF0800B9AF800306BE54BF0400BF6
:102530009AF8003066E59AF800306C2B03BF9AF8E1
:1025400001304BF0200B0AF1010A4BF0100B59E55A
:10255000002A40F009871BF0200F40F0F7841BF0A1
:10256000100F40F0AA841BF0400F00F0A6840F9AD1
:10257000136804320F92BDF824201A8011E50F99D8
:10258000B24B0C6818933022782304318DF87930DF
:1025900011934BF0020B0F9100258DF87820022348
:1025A000CBE50F9911930A688DF8A02000230A4605
:1025B0001F468DF87730043201230893CDF81CB004
:1025C0000A9712970F920E9328AEDFE51193002A17
:1025D00040F0E2861BF0200F5DD11BF0100F40F0A1
:1025E00006831BF0400F00F002830F99B1F9004001
:1025F0000431E51722462B460F91002A73F10003A0
:1026000058DB0A999DF877704A1C4FF001037FF45C
:102610009BAD54EA050200F0DC81CDF81CB0012B23
:1026200000F07882022B40F0038218984E4623096E
:1026300004F00F0143EA05732A091C461546435C62
:1026400006F8013D54EA0503F1D1A9EB06030E9308
:1026500090E51193002A40F09B867D4B18931BF068
:10266000200F3FF4EFAE0F9D073525F0070303F170
:1026700008021BF0010F0F92D3E900457FF4F4AE7E
:1026800002235AE51193002A40F07E864BF0100B8E
:102690001BF0200FA1D00F9D073525F00705D5E9C8
:1026A0000023002A05F108011D4673F100030F9174
:1026B0001446A6DA2D27644265EB45058DF8777040
:1026C00001233DE51193002A40F05A860F9D0735FE
:1026D00025F0070303F108020F921A6814925B6851
:1026E0001593159B149D23F00044284621464FF076
:1026F000FF32584B03F028FE002840F0488328465C
:1027000021464FF0FF32534B03F000FE002840F00B
:102710003E8314A80FC803F0EFFD002840F02F857A
:102720009DF877704C4E4D4B2BF080000790119820
:102730000322002108920A914728D8BF1E460E9214
:1027400012911FE54BF0080B9AF800305AE4A3F100
:10275000300000231C461AF8013B04EB840400EB14
:102760004404A3F130000928F5D90D944CE44BF052
:10277000100B11931BF020033FF41EAE0F9D073585
:1027800025F0070303F10802D3E900450F92002367
:10279000D3E41193002A40F0E085119A002A3FF417
:1027A000A4AC002301211F4608918DF8A020CDF88C
:1027B0001CB08DF877300A9312930E9128AEE5E4A1
:1027C000279C35E5119B652B40F3A68014A80FC804
:1027D00003F088FD002800F04F81269B204AC8F8AE
:1027E0000020013301340122072B27942693C8F8D7
:1027F000042000F36A8308F108081F9B139A279CA2
:10280000934203DB079BDD077FF584AD269B199977
:102810001A9AC8F8002001330C44072BC8F804109A
:102820002794269300F39E8308F10808139B5E1EED
:10283000002E7FF76FAD102E269B0A4D40F3F581D9
:1028400022461027DDF830B00B9C13E000644000F6
:10285000EC634000FFFFEF7FE0634000DC6340007B
:102860001C6440003064400008F10808103E102E3F
:1028700040F3DA8101331032072B2792269388E840
:10288000A000F1DD25AA2146584602F0A7FC002849
:102890007FF432AC279A269BC846E7E70D9B089A3F
:1028A0009F1A002F7FF7E7AC102F269BB64D27DD30
:1028B00042462146B0464FF0100B2E460C9C0B9D15
:1028C00004E0103F102F02F1080215DD0133103132
:1028D000072B2791269382E84008F2DD25AA294696
:1028E000204602F07BFC00287FF406AC103F102F3E
:1028F0002799269B4A46E9DC35460C4646469046D3
:1029000001333C44072B2794269388E8A00000F36A
:10291000328208F10808AEE4139B269F012B40F396
:10292000FE81013701340123072F27942697C8F829
:102930000060C8F8043000F3038208F10808199A0F
:102940001A9BC8F8003001371444072F27942697A4
:10295000C8F8042000F3008208F1080814A80FC882
:1029600003F0C0FC139B002840F00181013B0137BC
:1029700001361C44072F26972794C8F80060C8F832
:10298000043000F3288108F108081B9AC8F80420D5
:102990000137144421AB072F27942697C8F800303D
:1029A0007FF7B6AC25AA0B990C9802F017FC00280B
:1029B0007FF4A2AB279CC846ACE425AA0B990C98DF
:1029C00002F00CFC00283FF4EEACFFF795BBDDF8FD
:1029D0001CB0012B00F03581022B25D1CDF81CB0A5
:1029E0000024002521E625AA0B990C9802F0F6FB9D
:1029F00000287FF481AB279CC84678E425AA0B9970
:102A00000C9802F0EBFB00287FF476AB279CC846BD
:102A10001EE425AA0B990C9802F0E0FB00287FF435
:102A20006BAB279CC84623E4CDF81CB000240025DE
:102A3000494600E03146E20842EA4572E80804F0FF
:102A4000070305461446303354EA050201F8013CF9
:102A500001F1FF36EED1079AD2077FF5F6AD302BA4
:102A60003FF4F3AD0239302306F8013CA9EB010332
:102A70000E930E46FFF77EBB1F99002940F32F826D
:102A8000129B139A9342A8BF1346002B1F460DDDDD
:102A9000269BC8F8006001333C44072B2794C8F8F4
:102AA0000470269300F3208308F10808129B002F7E
:102AB000A8BFDB1B002B1F4640F3D780102F269B9F
:102AC000314D40F3EE8142462146B0464FF0100BA7
:102AD0002E460C9C0B9D04E00832103F102F40F353
:102AE000DC8101331031072B2791269382E84008BF
:102AF000F2DD25AA2946204602F070FB00287FF46B
:102B0000FBAA2799269B4A46E7E70A9B0E934E4667
:102B1000FFF730BB002D08BF0A2CC0F090804E4656
:102B2000204629460A220023FEF7F0FF303206F83D
:102B3000012D2046294600230A22FEF7E7FF04461E
:102B40000D4654EA0503EBD1A9EB06030E93FFF7FC
:102B500011BB25AA0B990C9802F040FB00287FF4CA
:102B6000CBAA9DF87770279CC846FFF761BB5E1E15
:102B7000002E7FF70AAF102E034D23DD22464FF0C3
:102B8000100B0C9C07E000BF30644000103E102E7C
:102B900008F1080815DD01371032072F2792269714
:102BA00088E82008F2DD25AA0B99204602F016FBE2
:102BB00000287FF4A1AA103E102E279A269FC8460F
:102BC000E9DC144601373444072F2794269788E818
:102BD00060007FF7D8AE25AA0B990C9802F0FEFA98
:102BE00000287FF489AA279C269FC846CDE60F9A25
:102BF000146813460433E5170F9322462B46FCE472
:102C000004321C680F9201230025FFF796BA1C6856
:102C100004330F93002523E40F990A4604320C680D
:102C20000F920025FFF789BA144601333444072B6D
:102C30002794269388E860007FF76AABB2E6DDF858
:102C40001CB0CDF81CB042AE3034012306F8414D23
:102C50000E93FFF78FBA25AA0B990C9802F0BEFAD3
:102C600000287FF449AA279CC8461F9A139B9A42C2
:102C700044DB079BD90741D4139B12989A1A1D1A5B
:102C80009542A8BF1546002D0EDD2699C8F80450C0
:102C9000013106442C440729C8F800602794269186
:102CA00000F33B8208F10808002DACBF561B164606
:102CB000002E7FF72FAB102E269BB04DB5DD2246A0
:102CC0001027DDF830B00B9C04E008F10808103E36
:102CD000102EA9DD01331032072B2792269388E8A6
:102CE000A000F2DD25AA2146584602F077FA002816
:102CF0007FF402AA279A269BC846E8E7269B1998E4
:102D00001A99C8F8001001330444072B2794C8F817
:102D10000400269300F3F58108F10808ACE7079B4F
:102D2000DA073FF5FEAD013701340123072F279461
:102D30002697C8F80060C8F804307FF724AE4AE749
:102D400025AA0B990C9802F049FA00287FF4D4A91F
:102D5000279C269FC846F2E525AA0B990C9802F0FD
:102D60003DFA00287FF4C8A9279C269FC846F5E5B0
:102D70004E46FFF7FFB925AA0B990C9802F02EFAE0
:102D800000287FF4B9A9279CC846FFF774BA149CA1
:102D900022462046159C2346214603F0D5FA0028FA
:102DA00040F086820A9B0133119B23F020030E938F
:102DB00000F0E281472B00F01E814BF480730793F3
:102DC000159B1F1E149B0893BBBF3B4603F1004796
:102DD00000232D231093119B662B00F0BB81462B03
:102DE00000F0DF800E9B089A452B0CBF0A9B0A9DC2
:102DF00023A820A908BF5D1C049003911FA80221ED
:102E00003B460290019500910C9800F06DFB119BE0
:102E1000672B064640F0E0811BF0010F00F0468270
:102E20007419169A0898179B394603F05BFA002824
:102E300040F06581239BA34206D230215A1C239285
:102E40001970239B9C42F9D89B1B13930E9B472B15
:102E500000F0E980119B652B40F3CD81119B662B1F
:102E60001F9B129300F09E81139B129A1946914268
:102E700000F38A811BF0010F40F0138222EAE27313
:102E8000089367230E921193109B002B40F0C4808F
:102E90000A939DF87770FFF775B935460C4646469C
:102EA000904601333C44072B2794269388E8A000E2
:102EB0003FF7D1AE08F10808D7E60F9A136804323D
:102EC0000F92099A1A60FFF76CB825AA0B990C9813
:102ED00002F084F900287FF40FA9C8468DE4269BF0
:102EE000274AC8F80020013301340122072B279418
:102EF0002693C8F8042072DC08F1080829B9139B4E
:102F00001BB9079BD8077FF505AA269B19981A9A23
:102F1000C8F80020013302462244072B2792C8F844
:102F20000400269300F38D8108F108080029C0F2FF
:102F300065811399C8F8006001338C18072B27941A
:102F40002693C8F804107FF7E3A92BE50F9A099997
:102F50001368CD170846043229460F92C3E90001D1
:102F6000FFF71FB825AA0B990C9802F037F9002833
:102F70007FF4C2A8279CC84658E400BF30644000D4
:102F80001C64400040210C9801F000FA0B9A10607C
:102F90001061002800F0EC810B9A40235361FEF78A
:102FA000F0BF23A820A90A9C049003911FA8032125
:102FB0000290089A01943B4600910C9800F094FA14
:102FC00025460646119B462B06EB05047FF429AFE8
:102FD0003378302B00F072811F9D2C4421E725AA05
:102FE0000B990C9802F0FAF800287FF485A81F9935
:102FF000279CC84682E70A9B002B08BF01230A933F
:10300000DBE630460A9402F07BF80F950E90CDF87F
:103010001CB00346FFF7FBB92D2700238DF877700E
:103020000A93FFF7B0B81F9B12931A46033304DBD1
:103030000A9B19469142BFF617AF119B023B1193B1
:103040009DF844308DF88430129B013B002B1F9378
:10305000BDBF129BC3F101032D222B22092B8DF83A
:10306000852040F316810DF193042046AD4D00E01C
:10307000104685FB0312D917C1EBA20101EB8102B7
:10308000A3EB42023032092900F8012C0B4600F173
:10309000FF32EDDC30330238D9B2844202F8011C31
:1030A00040F25F810DF18600134601E013F8011B29
:1030B00000F8011BA342F9D101339B1A0DF18602DE
:1030C000134421AA9B1A139A1B93012A13440E93AB
:1030D00040F313810E9B199A13440E9323EAE37372
:1030E000089300231293CFE625AA0B990C9802F0BF
:1030F00075F800287FF400A8279CC846D6E423462C
:10310000A2E625AA0B990C9802F068F800287EF434
:10311000F3AF1F9A279CC846AEE525AA0B990C98D9
:1031200002F05CF800287EF4E7AF1F9A139B279CFF
:103130009A1AC846B8E50A9B1296062B28BF0623A2
:103140000A96374608930F95CDF81CB00E93764E2D
:10315000FFF718B823A820A90A9D049003911FA87F
:1031600003210290089A01953B4600910C9800F0CB
:10317000BBF9064644192BE706230A931DE62D27C3
:103180008DF87770FFF7CEBA199A139B1344129AF1
:103190000E93002A40F3AA8023EAE373089367237F
:1031A000119371E6002B40F3B2800A9A002A40F096
:1031B00093801BF0010F40F08F8008930E9363E61D
:1031C0000A9B08930E930A900F95CDF81CB01290AD
:1031D0009DF87770FEF7D6BF119B472B7FF420AE8A
:1031E0001BF0010F7FF4EEAE239B9B1B13930E9BF2
:1031F000472B3FF418AF1F9B129321E74F4210312A
:103200004A4D2FDA1024DDF830B004E008F1080848
:10321000103F102F26DD01331032072B2792269303
:10322000C8F80050C8F80440F0DD25AA0B995846AC
:1032300001F0D4FF00287EF45FAF279A269BC84692
:10324000E6E725AA0B990C9801F0C8FF00287EF448
:1032500053AF1F99279A269BC84667E600200A901D
:10326000FEF7D2BE01333A44072B88E8A00027922C
:10327000269308F108087FF75CAE25AA0B990C98F5
:1032800001F0ACFF00287EF437AF279A269BC84692
:103290004FE6303330228DF887308DF8862022AB10
:1032A0000FE7129B199A13440E9375E7239BCBE506
:1032B0001F4E204B9DF87770FFF736BA169A089884
:1032C000179B394603F00EF800287FF485AEC5F150
:1032D00001051F952C44A4E5129B199A13440A9AE0
:1032E0001A4422EAE2730E920893CDE5129B0E9ADD
:1032F000C3F101031A441346D6E71BF001031293EE
:103300007FF4E8AE0E9B23EAE3730893BCE50A9BC7
:1033100013B91BF0010F02D0199B0133DFE7012322
:103320004BE700BF67666666146440003064400087
:10333000E8634000E46340000F9D9AF8013028687C
:1033400040EAE0700A9028460430A2460F90FEF74B
:1033500059BE8DF87710FFF76FB88DF87710FFF72B
:103360001CBA0DF18603ACE68DF87710FFF7F3B8C1
:103370000C9A0C2313604FF0FF330993FEF7C5BE80
:103380008DF87710FFF7A2B98DF87710FFF77EB9A7
:103390008DF87710FFF761B98DF87710FFF71AB93C
:1033A000024B13B1024800F005B87047000000005E
:1033B0003D434000002301461A46184601F08CBFE9
:1033C00002690B69934200F38D802DE9F04F03F100
:1033D000FF3801F1140700F1140B57F828205BF8AF
:1033E00028304FEA880483B00132B3FBF2F90BEBCB
:1033F0000403009407EB040A0193B9F1000F39D0DC
:1034000000252E46BC46DE465CF8044BDEF8003054
:10341000A2B209FB0255220C2C0C09FB0242ADB2F0
:10342000751B96B2C6EB134615FA83F306EB2346DB
:103430009BB243EA0643E2454FEA12454EF8043B8D
:103440004FEA2646E0D2009B5BF8033093B9019C1B
:10345000231F9B450CD254F8043C4BB9A4F108033C
:1034600002E01A68043B1AB99B4508F1FF38F8D30B
:10347000C0F81080044601F027FD00282EDB09F17A
:1034800001095D46002357F8041B28688AB29A1A7E
:103490000B0C12FA80F2C3EB104303EB224392B2FF
:1034A00042EA0342BA4545F8042B4FEA2343EAD2E5
:1034B0005BF828200BEB880382B91A1F93450BD2C7
:1034C00053F8042C42B9083B02E01A68043B1AB9CD
:1034D0009B4508F1FF38F8D3C4F81080484603B084
:1034E000BDE8F08F002070472DE9F04F016C9BB0D4
:1034F0000446279E92469B4641B1426C4A60012396
:1035000093408B6001F008FB00232364BBF1000FA4
:103510005D4635DB002333609D4BAB4315D05046F1
:1035200059460022002302F0DDFE804600282DD0FF
:10353000269A01231360289B002B00F0BD8095483C
:10354000186001381BB0BDE8F08F269A42F20F7365
:103550001360BAF1000F0DD1C5F3130555B9289BBF
:103560008D48002BEED000F10803289A13601BB0A1
:10357000BDE8F08F289B8948002BE3D0C31CF4E7FB
:1035800001232BF000453360AB46C5E718AA19AB01
:103590000192009352465B46204601F035FD2B0D0B
:1035A000814671D0CBF3130242F07F51189FCDF8C2
:1035B00050805046A3F2FF3641F440110022784B70
:1035C00002F074FA6CA3D3E9002302F023FC6CA38D
:1035D000D3E9002302F06CFACDE90201304602F093
:1035E000B3FB69A3D3E9002302F014FC02460B46A7
:1035F000DDE9020102F05CFACDE9040102F0BAFE55
:10360000002202900023DDE9040102F075FE00288B
:1036100040F07381029D162D00F25D81614B03EB3A
:10362000C503D3E9000152465B4602F083FE002841
:1036300000F0C5816B1E029300230E93BF1B7B1EFF
:10364000069300F1548100230893029B002BC0F2E3
:103650004581069A0D9311461944002306910C9357
:10366000249B092B2AD8052B40F35B86043B24932B
:103670000025249B023B032B00F24286DFE813F077
:10368000D403C902DF036104189F199E3E4406F269
:103690003243202B40F38E81C3F1400306F21240E7
:1036A0009D402AFA00F0284302F03EFB0123013E30
:1036B000A1F1F871149381E73B4843E7002161646D
:1036C0002046259101F002FA4FF0FF330A93259A24
:1036D0000F9301230490206424920B93199B002BD9
:1036E000C0F2D980029A0E2A00F3D5802D4B03EB4D
:1036F000C203D3E90023CDE90823259B002BC0F2A8
:10370000BA83DDE9085650462A463346594602F048
:10371000ABFC02F02FFE804602F016FB2A46334631
:1037200002F078FB0B4602465946504602F0BEF9BD
:10373000049D08F130032B700A9B012B06460F46AF
:1037400005F1010568D00022184B02F063FB00224E
:10375000002306460F4602F0C5FD002840F0888091
:10376000CDF82C904FF0000ADFF840B00C94DDE962
:10377000088928E0AFF3008061436F63A787D23FD9
:10378000B3C8608B288AC63FFB799F501344D33F50
:103790000000F07F1D644000406440004C64400025
:1037A0000000F83F786440001C64400000002440A2
:1037B00002F030FB0022002306460F4602F092FD85
:1037C000002840F0C18342464B463046394602F05D
:1037D0004BFC02F0CFFD044602F0B6FA42464B46DF
:1037E00002F018FB02460B463046394602F05EF9FD
:1037F00004F1300E049E05F801EBA5EB060E0A9EBF
:10380000B645CDE9060152465B46D1D1A046DDF86A
:103810002C900C9C06460F4632463B4630463946B5
:1038200002F046F906460F4602460B46DDE908015E
:1038300002F062FD48B932463B46DDE9080102F07C
:1038400051FDA8B118F0010F12D015F8018C049A9F
:103850006B1E04E09A4200F0018413F8018DB8F168
:10386000390F03F10105F5D008F1010883F8008054
:103870004946204601F050F90022029B2A70269A00
:1038800001331360289B002B00F09E8304981D6079
:103890001BB0BDE8F08F0B9A002A3ED0249A012A73
:1038A00040F311830A9B0C9A5F1EBA42C0F28F83C9
:1038B000D71B0A9B002BC0F28B84089D0A9B089A99
:1038C0001A440892069A01211A442046069201F0F1
:1038D000BDF9064624E001230E93AFE6089A029B49
:1038E000D21A5B420C93002308920D93B8E6C7F1FD
:1038F0000103089300230693A7E6029D284602F0E1
:1039000023FA02460B46DDE9040102F0EBFC002835
:103910007FF480AE6B1E02937CE60C9F089D0B9E8D
:10392000002D0CDD069900290B4608DDA942089AF6
:10393000A8BF2B46D21AED1ACB1A089206930C9BFD
:10394000D3B10B9B002B00F0B782002F10DD314666
:103950003A46204601F016FA4A46014606462046F7
:1039600001F07EF949468046204601F0D5F8C1466F
:103970000C9BDA1B40F0A1820121204601F066F980
:103980000D9B002B80461CDD01461A46204601F0A7
:10399000F9F9249B012B804640F3548200230C93B9
:1039A000D8F8103008EB8303186901F0FFF8C0F174
:1039B000200010E0C3F120050AFA05F074E60E902D
:1039C0003CE6249B012B40F3878200230C930D9B44
:1039D0000120002BE4D1069A104410F01F0000F0E3
:1039E000A180C0F12003042B40F39E84089BC0F10A
:1039F0001C00034408931346034405440693089BA4
:103A0000002B05DD49461A46204601F00BFA814697
:103A1000069B002B05DD41461A46204601F002FABE
:103A200080460E9B002B40F086800A9B002B40F3C3
:103A300066820B9B002B00F09880002D05DD31463F
:103A40002A46204601F0EEF906460C9B002B40F07A
:103A5000378306960A9B049ADDF818B0013BD31809
:103A60000B930AF001030C931746C2465146484691
:103A7000FFF7A6FC31460546484601F025FA5A46AE
:103A80000A905146204601F03BFAC268804605F193
:103A90003003002A40F02B8201464846089301F08B
:103AA00013FA41460690204601F036F8069A089B24
:103AB00032B9249921B90C9A002A00F0EF83249A94
:103AC0000A990029C0F29F8205D1249919B90C994D
:103AD000002900F09882002A00F306830B9A3B70BD
:103AE00007F101089742454600F00C834946002340
:103AF0000A22204601F01AF85E45814631464FF011
:103B000000034FF00A02204600F0EB8101F00EF8AE
:103B10005946064600230A22204601F007F8474688
:103B20008346A3E71C20089B03440893069B034499
:103B30000544069363E74146484601F0C5F900286D
:103B4000BFF673AF029F494600230A222046013F79
:103B5000029700F0EBFF0B9B8146002B40F0B683F1
:103B60000F9B002B40F3BF830A93DDF810B00A9F30
:103B70005D4602E000F0DAFF814641464846FFF725
:103B80001FFC00F1300A05F801ABA5EB0B03BB42AB
:103B90004FF00A024FF0000349462046EADB049B3F
:103BA0000A9A012AACBF9B1801331D464FF0000B47
:103BB00049460122204601F035F94146814601F08F
:103BC00083F9002840F33D8215F8012C04996B1EFF
:103BD00004E08B4200F0AE8113F8012D392A03F185
:103BE0000105F6D001321A704146204600F094FFDC
:103BF000002E3FF43DAEBBF1000F05D0B34503D01E
:103C00005946204600F088FF3146204600F084FFE8
:103C10002EE600230B93029B259A13440F93013346
:103C2000012B1F461E460A93B8BF01270021172FFC
:103C300061640AD9012204235B0003F11400874266
:103C4000114602F10102F7D26164204600F03EFF06
:103C50000E2E049020643FF641AD002D3FF43EADA2
:103C600002990029CDE910AB40F30282B84B01F074
:103C70000F020D1103EBC203E906D3E9006740F11F
:103C8000AE81B44B50465946D3E9082302F0ECF913
:103C9000CDE9120105F00F054FF0030A8DB1DFF8F1
:103CA000B482EA0709D530463946D8E9002302F044
:103CB000B1F80AF1010A06460F466D1008F108082E
:103CC000EFD13B463246DDE9120102F0CDF907465D
:103CD00088460E9B43B100229F4B3846414602F076
:103CE0000BFB002840F08682504602F02DF83A4641
:103CF000434602F08FF8994B002201F0D9FE0A9B4F
:103D00000546A1F15076002B00F03E81029B1593F1
:103D10000A9B12930B9B002B00F0FA81129A8C4B9A
:103D20008F4903EBC20353E90223002002F09CF900
:103D30002A46334601F0BAFE82468B463846414653
:103D400002F018FB054601F0FFFF02460B4638461D
:103D5000414601F0ABFE30355FFA85F8049D06461A
:103D60000F4685F8008002460B46504659460135FD
:103D700002F0E0FA002854D132463B460020764952
:103D800001F094FE02460B465046594602F0D2FA24
:103D9000002840F07082129A012A00F01181129BD3
:103DA000049ACDF84890134499460DE000206A49E2
:103DB00001F07CFE52465B4602F09EFA002840F07D
:103DC00058824D4500F0FA80504659460022654B16
:103DD00002F020F80022634B82468B46304639467B
:103DE00002F018F80F46064602F0C4FA804601F0C9
:103DF000ABFF02460B463046394601F057FE08F14C
:103E000030085FFA88F852465B4605F8018B064693
:103E10000F4602F071FA32463B460028C6D0DDF864
:103E20004890159B029323E500230B93259B002BC1
:103E300040F3DC801F461E460F930A93F6E60123EB
:103E40000B93F3E7BAF1000F7FF4A8ADCBF31303A4
:103E5000002B7FF4BAAD2BF000473F0D3F05002F3C
:103E600000F00D82089B01330893069B01330693F3
:103E700001230C93ABE50A9B002B3FF742AC40F0CB
:103E800021820022384BDDE9080101F0C3FF5246D0
:103E90005B4602F045FADDF828804646002841D00E
:103EA000259B049DDB4302934146204600F034FEEF
:103EB000002E3FF4DDACA7E60C9A4946204600F000
:103EC00061FF814658E5149A002A00F0878103F2C9
:103ED00033430C9F089DF2E4BAF1000F7FF475ADF7
:103EE000B4E700F023FE474606468346BEE501469A
:103EF0002046069300F010FE0122069BE0E5249B7D
:103F0000022B7FF796AD0A9B002BC9D141460522B3
:103F1000204600F00BFE01468046484600F0D4FFE4
:103F20000028BDDD029A04993123013202920B7000
:103F30004D1CB9E7029A01320292049A31231370A0
:103F400052E601230B9366E6DDF82C900C9C8FE47F
:103F500078644000506440000000F03F00001C40C6
:103F60000000E03F0000244000001440504601F0F3
:103F7000EBFE3A46434601F04DFF0022C14B01F0F3
:103F800097FD0546A1F1507641460022BE4B3846CA
:103F900001F08CFD2A46334682468B4602F0CAF970
:103FA0008046002840F010812A4606F10043504622
:103FB000594602F0A1F918B1464671E7DDF848907C
:103FC000DDE910ABFFF78ABB0498FFF7BBBA0C9B87
:103FD0000D9A0C97FB1A1A440D92002769E4DDE94B
:103FE00010234FF0020ACDE9122357E600210123E6
:103FF00061642046259300F069FD259B04902064B0
:104000000A930F9329E6002AD046CDF818B09A46B5
:1040100011DD49460122204600F004FF4146814659
:1040200000F052FF002840F34681BAF1390F00F04A
:10403000068105F1310AB34687F800A07D1C069E73
:10404000D2E504D11AF0010F01D0BDE5154615F8EF
:10405000013C302B05F1FF32F8D0C5E50499302240
:104060000A70029A15F8018C01320292FFF7FCBB2C
:1040700000F0BB80029B5D42844B05F00F0203EB16
:10408000C203D3E90023DDE9100101F0C3FE2D11C5
:104090000746884600F02C817D4E4FF0020AEB0760
:1040A00009D538464146D6E9002301F0B3FE0AF1AE
:1040B000010A074688466D1006F10806EFD108E6AA
:1040C0007168204600F002FD336902339A0005460C
:1040D00006F10C010C3000F05BFC29460122204661
:1040E00000F0A0FE0690B5E4392BCDF818B0D0460C
:1040F00000F0A58003F1010AB34687F800A07D1CFB
:10410000069E71E55A46D046B3469A4616464FE596
:10411000129B5E4901EBC3012A46334651E9020175
:1041200001F078FECDE916013846414602F022F949
:10413000054601F009FE0B4602464146384601F0AD
:10414000B5FC129B0F4604993035012B0D700646C5
:1041500001F1010526D0129B049ADFF83CB1CDF89D
:10416000489013444FF0000A994652465B46304649
:10417000394601F04FFE0F46064602F0FBF8804636
:1041800001F0E2FD08F1300802460B4630463946A0
:1041900001F08CFC05F8018B4D4506460F46E4D135
:1041A000DDF848903B4B0022DDE9160101F080FC70
:1041B00032463B4602F0A0F8002846D0159B0293F9
:1041C00015F8018CFFF743BB4FF000084646A9E6FF
:1041D000089B0A9A9D1A0023FFF771BB189B0C9F3E
:1041E000089DC3F13603FFF76ABBDDE910784FF095
:1041F000020A6EE50A9B002B3FF4B8AE0F9B002B22
:104200007FF7DEAE0022244B3846414601F002FE25
:10421000074688460AF1010001F096FD3A464346FA
:1042200001F0F8FD0022174B01F042FC029A0F9BAF
:104230001293013A0546A1F1507615926AE53922AA
:10424000B3463A70069E7D1CC0E4DDE916230020CB
:10425000104901F02BFC32463B4602F06BF808B9DE
:10426000AEE6154615F8013C302B05F1FF32F8D0CB
:10427000D7E5DDF84890159B0293FFF7E8BA0C9755
:10428000FFF7A5BB00001C4000001440786440000C
:10429000506440000000E03F00002440392BCDF87E
:1042A00018B0D046DDF828B09A46C8D0BBF1000F50
:1042B0003FF7BFAEBFE67FF4BEAE1AF0010F3FF48A
:1042C000BAAEB2E64FF000084646E9E531460023B3
:1042D0000A22204600F02AFC0F9B002B06460ADD2E
:1042E0000A93FFF7AABB249B022B23DC0F9B3BE422
:1042F0004FF0020AEDE4249B022B1BDC0F9BEFE73F
:10430000002565642946204600F0E0FB4FF0FF33AE
:104310000A930F9301230490259520640B93FFF7D4
:10432000DDB90125FFF7A5B93FF469ABC0F13C0049
:10433000FFF7F9BB0F9B0A93E5E500BF38B50A4CC0
:104340000A4D641BA4100AD004F18043013B05EB25
:104350008305013C55F804399847002CF9D1BDE894
:10436000384002F087B900BF846640008066400094
:10437000044A054B1268506B002808BF1846F030FD
:10438000704700BF10004020500840202DE9F04F3A
:1043900001F10B06162E83B0054640F29E8036F0E2
:1043A000070600F1BD80B14200F2BA8000F08AFB3E
:1043B000B6F5FC7FC0F09382730A00F0B880042B3E
:1043C00000F27981B30903F1390003F1380EC3001B
:1043D000BF4F3B44A3F108015C68A14206D10CE049
:1043E000002A80F2AA80E468A14206D0636823F024
:1043F00003039A1B0F2AF3DD70463C69DFF8E4E201
:10440000744500F0AB81636823F003039A1B0F2A05
:1044100000F39081002AC7F814E0C7F810E080F29A
:104420009D80B3F5007F80F06181DB0803F1010C12
:1044300099107A6857F83C80C4F8088001238B40B3
:1044400007EBCC0113430839E1607B6047F83C403F
:10445000C8F80C408210012494409C4200F28B80EA
:104460001C4206D120F0030064001C4200F104004D
:10447000FAD007EBC009CC468046DCF80C309C45EE
:1044800007D16DE1002A80F27B81DB689C4500F05A
:104490006781596821F003018A1B0F2AF2DDD3F8E6
:1044A0000CC0D3F8088000939C19284646F00106FA
:1044B00042F001055E60C8F80CC0CCF808807C6151
:1044C0003C61C4F80CE0C4F808E065605A5000F0A4
:1044D000FBFA009B03F108041EE0102920D800F02D
:1044E000F1FA102618230220794F3B44A3F1080269
:1044F0005C68944200F03D816368E168A66823F03F
:104500000303234428465A68F16042F001028E609A
:104510005A6000F0D9FA0834204603B0BDE8F08FA5
:1045200000240C2320462B6003B0BDE8F08F402010
:104530004FF400734FF03F0E4AE72344E1685A6896
:10454000A66842F00102F16028468E605A6000F0D1
:10455000BBFA0834204603B0BDE8F08F2344284658
:104560005A6842F001025A6000F0AEFA0834204660
:1045700003B0BDE8F08FBC68636823F00308B04562
:1045800004D3A8EB06030F2B00F38580DFF85891C6
:10459000504BD9F800201B680132334404EB080A61
:1045A00000F0558103F580530F3323F47F6B2BF01C
:1045B0000F0B5946284600F083FD411C024600F0CF
:1045C000FC80824500F2F780434B1968594419601A
:1045D00000F04D81D9F8000001301BBFA2EB0A0AA0
:1045E0005144C9F80020196012F0070100F015814C
:1045F000C1F10800C1F580510244083102EB0B09FA
:10460000C9F30B09A1EB0909494628460193009219
:1046100000F056FD431C9DE80C0000F04381801A19
:10462000484440F001001968BA604944BC425060F7
:10463000196017D0B8F10F0F40F2FB806068A8F145
:104640000C0222F0070204EB020E00F001004FF012
:10465000050C10430F2A6060CEF804C0CEF808C0E5
:1046600000F217811D4BBC681A68914288BF19601F
:104670001B4B1A689142626888BF196022F00302DE
:104680009642A2EB060301D80F2B04DC284600F06B
:104690001BFA002440E7A21943F0010346F001068B
:1046A00066602846BA60536000F00EFA083420466F
:1046B00003B0BDE8F08F142B71D9542B00F2A38006
:1046C000330B03F16F0003F16E0EC30080E600BFF1
:1046D00040044020840A4020540A40207C0A4020A4
:1046E000800A402048044020480840205A0A042AF2
:1046F0005BD9142A00F2AE8002F15C01C9005B3282
:1047000007EB010C7958ACF1080C8C4500F088805F
:104710004A6822F00302934273D289688C45F7D12C
:10472000DCF80C207B68E260C4F808C09460CCF828
:104730000C408FE6A11946F0010C42F00106C4F8C6
:1047400004C0284679613961C1F80CE0C1F808E07D
:104750004E60E25000F0B8F90834DDE67B6879E697
:1047600008F1010818F0030F0CF1080C7FF485AE76
:104770002DE0DC68A34208BF02303FF43EAEBBE64A
:1047800019441C464A68DB6854F8086F42F001027D
:104790004A602846F3609E6000F096F9BCE603F19B
:1047A0005C0003F15B0EC30012E69A0902F13901C5
:1047B000C9003832A4E7BC4254D0BC68626822F019
:1047C00003025DE759F80839994540F0868010F0FA
:1047D000030F00F1FF30F5D17B6823EA04037B600F
:1047E00064009C423FF6C7AE002C3FF4C4AE1C42AE
:1047F00040467FF43EAE64001C4200F10400FAD053
:1048000037E68C468CE7B3F5AA7F15D8F30B03F196
:10481000780003F1770EC300DAE54FF48051EDE63E
:104820007B689210012101FA02F213437B60624619
:1048300079E70123536029E740F25452934222D88A
:10484000B30C03F17D0003F17C0EC300C0E503F15E
:10485000100BAEE6542A29D81A0B02F16F01C900D9
:104860006E324DE7204B196859441960B2E6CAF31D
:104870000B0000287FF4AEAE08EB0B03BA6843F0E0
:1048800001035360EEE67F204FF47E734FF07E0EFF
:104890009EE504F108012846009300F0EFFD009B1F
:1048A0001968DFE601204FF00009BCE6B2F5AA7FE7
:1048B00005D8DA0B02F17801C900773220E740F21F
:1048C00054518A4205D89A0C02F17D01C9007C320C
:1048D00016E74FF47E717E2212E77B6880E7F008CE
:1048E00006F1080300E600BF540A40200000000063
:1048F00001F0FF01102A2BDB10F0070F08D010F891
:10490000013B013A8B422DD010F0070F42B3F6D194
:10491000F0B441EA012141EA014122F007047FF0AD
:1049200000070023F0E80256083C85EA010586EA04
:10493000010685FA47F5A3FA87F586FA47F6A5FA40
:1049400087F68EB9EED1F0BC01F0FF0102F007024C
:1049500032B110F8013B013A83EA010313B1F8D1F7
:104960000020704701387047002D06BF35460338D8
:10497000073815F0010F07D1013015F4807F02BF11
:10498000013015F4C03F0130F0BC0138704700BF62
:10499000844641EA000313F003036DD1403A41D34A
:1049A00051F8043B40F8043B51F8043B40F8043B09
:1049B00051F8043B40F8043B51F8043B40F8043BF9
:1049C00051F8043B40F8043B51F8043B40F8043BE9
:1049D00051F8043B40F8043B51F8043B40F8043BD9
:1049E00051F8043B40F8043B51F8043B40F8043BC9
:1049F00051F8043B40F8043B51F8043B40F8043BB9
:104A000051F8043B40F8043B51F8043B40F8043BA8
:104A100051F8043B40F8043B51F8043B40F8043B98
:104A2000403ABDD2303211D351F8043B40F8043B38
:104A300051F8043B40F8043B51F8043B40F8043B78
:104A400051F8043B40F8043B103AEDD20C3205D348
:104A500051F8043B40F8043B043AF9D2043208D040
:104A6000D2071CBF11F8013B00F8013B01D30B88B2
:104A700003806046704700BF082A13D38B078DD090
:104A800010F003038AD0C3F10403D21ADB071CBF62
:104A900011F8013B00F8013B80D331F8023B20F8CC
:104AA000023B7BE7043AD9D3013A11F8013B00F805
:104AB000013BF9D20B7803704B7843708B7883708D
:104AC00060467047704700BF704700BFC36C70B549
:104AD00005460C464BB153F8240080B1026843F8F8
:104AE000242000230361C36070BD2122042100F053
:104AF00045FCE86403460028EDD1002070BD01218B
:104B000001FA04F6721D2846920000F037FC0028D6
:104B1000F3D044608660E4E731B1C36C4A6853F86F
:104B20002200086043F82210704700BFF0B50C69FE
:104B300083B00D46064601F1140E0027DEF8000092
:104B400081B202FB0133010C180C02FB01019BB284
:104B5000013703EB0143BC424EF8043B4FEA1143DB
:104B6000ECDC3BB1AA68944207DA05EB840201341D
:104B700053612C61284603B0F0BD6968019301318F
:104B80003046FFF7A3FF2A69023205F10C01074600
:104B900092000C30FFF7FCFEF26C6968019B52F842
:104BA0002100286042F821503D46DEE7020C120445
:104BB0000346B2B90304102013F07F4F04BF1B0259
:104BC000083013F0704F04BF1B01043013F0404F46
:104BD00004BF9B000230002B02DB5B0003D42020CB
:104BE00070470020E8E70130704700BF036813F00A
:104BF0000702014607D0DA0721D4980721D49B0881
:104C00000B600220704798B298B1104613F0FF0F66
:104C100004BF1B0A08301A0704BF1B0904309A0797
:104C200004BF9B080230DA0707D45B0804D12020B8
:104C300070471B0C1020E9E701300B607047002023
:104C400070475B080B600120704700BF10B50C4631
:104C50000121FFF73BFF01224461026110BD00BF4B
:104C60002DE9F04F0C691569AC4283B08B461646AE
:104C700004DA2246B3462C460E461546DBF80830C9
:104C8000DBF8041004EB05089845C8BF0131FFF7B5
:104C90001DFF00F1140909EB880AD145009005D2E7
:104CA0004B46002143F8041B9A45FBD806F1140C2F
:104CB0000CEB85030BF1140B9C450BEB840E4CD2D3
:104CC000CDF804A09A46DCF80050AFB2EFB1002155
:104CD0004D465E460C4656F8042B286893B281B2C6
:104CE00007FB0313120C010C234407FB021101EB19
:104CF00013419BB243EA0143B64545F8043B4FEAF2
:104D00001144E8D82C60DCF800502D0C1DD0D9F8E7
:104D1000003048461C46594600220E88240C05FBEC
:104D2000064422449BB243EA024340F8043B51F854
:104D3000043B04681B0CA6B205FB036303EB1243A0
:104D40008E454FEA1342E8D803600CF1040CE245AB
:104D500009F10409B7D8DDF804A0B8F1000F0BDDA4
:104D60005AF8043CAAF1040A1BB105E05AF8043DC4
:104D700013B9B8F10108F9D10098C0F8108003B058
:104D8000BDE8F08F12F003032DE9F0411446074609
:104D90002ED10D46A4101CD0BE6C96B3E3074FF085
:104DA000000806D4641014D03068A8B10646E307A2
:104DB000F8D5324629463846FFF752FFB5B16A6842
:104DC000FB6C641053F82210296043F8225005460A
:104DD000EAD12846BDE8F081324631463846FFF731
:104DE0003FFF3060C0F800800646E0E70546D9E79F
:104DF0005A1E0B4D002355F82220FFF797FE05465B
:104E0000C8E701213846FFF761FE40F27121012217
:104E10000023416102610646B8640360BEE700BF3B
:104E2000406540002DE9F84391460A698B684FEAD6
:104E3000691404EB020808F101059D420E4607467D
:104E4000496804DD5B009D4201F10101FADC38464E
:104E5000FFF73CFE002C00F1140306DD03EB840297
:104E6000002143F8041B9A42FBD1346906F1140176
:104E700019F01F0901EB840E1DD0C9F1200C00228E
:104E80000C6804FA09F4144343F8044B51F8042B5A
:104E90008E4522FA0CF2F3D81A600AB108F1020525
:104EA000FB6C7268013D53F822100561316043F8D4
:104EB0002260BDE8F883043B51F8042B43F8042F2B
:104EC0008E45F9D8ECE700BF30B40B6905460069A0
:104ED000C01A0FD19B001435143119442B4401E042
:104EE0009D4207D253F8044D51F8042D9442F7D057
:104EF00002D3012030BC70474FF0FF30FAE700BF0B
:104F00002DE9F0410F690E4611697F1A002F904676
:104F100017D1890006F1140502F1140E6B187144C3
:104F200001E09D425CD253F8042D51F8044DA24299
:104F3000F7D05ED233462C46464675469846012742
:104F400005E058DB06F1140508F114040027716828
:104F5000FFF7BCFDD8F810303669C76004EB830C4E
:104F6000A64605EB860700F1140400235EF8041B37
:104F700055F8048B8AB213FA88F3090C9A1AC1EB1C
:104F8000184303EB224392B242EA0342F44544F849
:104F9000042B4FEA2343E9D8AF4217D9A446AE46C3
:104FA0005EF8042B13FA82F3191401EB12419BB241
:104FB00043EA014277454CF8042B4FEA2143EFD8EE
:104FC000ED432F4427F0030704373C44043C22B947
:104FD00054F8043D013E002BFAD00661BDE8F08193
:104FE0000021FFF773FD0122002302614361BDE848
:104FF000F0817446ABE7334606F1140402F1140560
:10500000164601279846A2E72DE9F04182B001211A
:105010001C46C3F30A571546089EFFF757FDC4F315
:10502000130480460FB144F4801401941DB302A808
:1050300040F8085DFFF7DAFD002834D19DE80C0048
:10504000C8F81420002B0CBF01210221C8F8183029
:10505000C8F81010DFB908EB8103A0F232403060CD
:105060001869FFF7A3FD099BC0EB4110186040468B
:1050700002B0BDE8F08101A8FFF7B8FD019BC8F8B8
:10508000143001212030C8F81010002FE3D0099B04
:10509000A7F233470744C0F1350037601860404637
:1050A00002B0BDE8F0819DE80A00C0F1200203FAD9
:1050B00002F20A43C3400193C8F81420C2E700BFBC
:1050C00038B5074C0023054608462360FCF796F9DF
:1050D000431C00D038BD2368002BFBD02B6038BDAB
:1050E000500B402000000000000000000000000005
:1050F00000000000000000000000000000000000B0
:1051000090F800F06DE9024520F007016FF0000C07
:1051100010F0070491F820F040F049804FF00004AF
:105120006FF00700D1E9002391F840F000F108008A
:1051300082FA4CF2A4FA8CF283FA4CF3A2FA8CF3C2
:105140004BBBD1E9022382FA4CF200F10800A4FA29
:105150008CF283FA4CF3A2FA8CF3E3B9D1E904237D
:1051600082FA4CF200F10800A4FA8CF283FA4CF3B4
:10517000A2FA8CF37BB9D1E9062301F1200182FA6E
:105180004CF200F10800A4FA8CF283FA4CF3A2FA74
:105190008CF3002BC6D0002A04BF04301A4612BA82
:1051A000B2FA82F2FDE8024500EBD2007047D1E985
:1051B000002304F00305C4F100004FEAC50514F014
:1051C000040F91F840F00CFA05F562EA05021CBFE5
:1051D00063EA050362464FF00004A9E72DE9F04FAA
:1051E000936883B09046002B70D082460C461768B7
:1051F0008D68086842E0A38913F4906F2ED065692A
:10520000216905EB4505A0EB010B05EBD5750BF10D
:1052100001006D103044A8422A4684BF05462A4644
:105220005B0538D511465046FFF7B0F800283CD052
:105230005A4621690190FFF7ABFBA289019B22F43A
:10524000906242F08002A281A5EB0B0203EB0B00FF
:10525000656123612060A2603546B3465A464946DF
:1052600000F008FAD8F80830A2682068551B5844A6
:105270009E1BA5602060C8F808603EB37E683B4670
:105280000837002EFAD0AE42D3F80090AB46B2D227
:105290003546B346E2E7504600F050FA0346002890
:1052A000D2D12169504600F0E9F80C23CAF8003049
:1052B000A389002243F040034FF0FF30A381C8F8D8
:1052C0000820C8F8042003B0BDE8F08F0020C8F81B
:1052D000040003B0BDE8F08F2DE9F047254C2568A8
:1052E000D5F848410646884692469946C4B3606858
:1052F0001F2817DC431C76B104EB80050122C5F89A
:1053000088A0D4F8881182401143022EC4F8881175
:10531000C5F808911ED00230636044F82080002058
:10532000BDE8F087144B03B34FF4C870AFF30080AF
:105330000446D0B1D5F84831002780E88800C5F888
:10534000484138460123C4F88871C4F88C71002E96
:10535000E1D0D1E7D4F88C110A43C4F88C21DAE704
:1053600005F5A674C5F84841C1E74FF0FF30BDE828
:10537000F08700BFD86340000000000010B502FBBA
:1053800001F1FFF703F80446D8B150F8042C22F0DD
:105390000302043A242A18D8132A14D900231B2AFA
:1053A0000360436016D9242A8360C36011BF00F1F3
:1053B00010020361436100F118020023136053607F
:1053C0009360204610BD0246F7E70021FCF74EFD32
:1053D000204610BD00F10802EFE700BFF8B5244FEA
:1053E0000C460646FFF76EFBBB685D68C4F57E6140
:1053F0000F3125F00305294421F47F6121F00F01CD
:10540000A1F58054B4F5805F07DB00213046FFF73B
:1054100057FEBB682B44984204D03046FFF754FB3C
:105420000020F8BD61423046FFF74AFE01300DD042
:10543000104BBA6819682D1B45F001053046091B51
:1054400055601960FFF740FB0120F8BD0021304690
:10545000FFF736FEBA68831A0F2BDEDD064C0549CE
:10546000246843F00103001B53600860D5E700BFC8
:1054700040044020540A402048084020002944D0DD
:105480002DE9F0410D468046FFF71CFB55F8047CE2
:10549000694927F00103A5F10804E2188E685068F5
:1054A000B24220F003005ED0FE0750600BD455F8E6
:1054B000087CE41B01F1080EA56875453B446DD0DE
:1054C000E768EF60BD6015186D68ED073ED543F0E5
:1054D00001026260E350B3F5007F17D2DB08581C6D
:1054E0009A104D6851F83070A7600123934001EB8A
:1054F000C0022B43083AE2604B6041F83040FC6048
:105500004046BDE8F041FFF7DFBA70475A0A042A67
:1055100052D89A0902F13907FF0002F13805C8197B
:10552000CA59083890424FD0516821F003018B428C
:1055300032D292689042F7D1C368A060E3609C6069
:10554000C4604046BDE8F041FFF7BEBA95683B4FE6
:10555000BD42034440D0D068E86043F0010285605A
:105560006260E350B7E7FF07034407D455F8082CFF
:10557000A41A1344A068E268C2609060304A1268BE
:1055800043F00100934260608C60B9D32D4B4046DC
:105590001968FFF723FFB3E71046CDE711184968F4
:1055A000C90744D49168D268CA60034443F001003B
:1055B00091606060E350A3E7142A16D802F15C07FB
:1055C000FF0002F15B05AAE7AA1001234D68934092
:1055D0002B434B600346B0E743F001024C610C6182
:1055E000E560A5606260E3508AE7542A06D81A0B8A
:1055F00002F16F07FF0002F16E0590E7B2F5AA7F96
:1056000006D8DA0B02F17807FF0002F1770586E78A
:1056100040F25450824206D89A0C02F17D07FF00F6
:1056200002F17C057BE74FF47E777E2577E743F038
:1056300001016160136063E740044020480440209A
:105640004C084020840A402082B049B15AB16BB165
:1056500013780B601278101C18BF012002B070473D
:1056600001A9002AF3D1104602B070476FF0010083
:10567000F4E700BF8842F0B50DD98B1898420AD2E2
:105680008418002A51D0224613F8014D02F8014D2A
:105690009942F9D1F0BD0F2A48D941EA00039B078E
:1056A00046D100F1100401F11003154653F8106CB7
:1056B00044F8106C53F80C6C44F80C6C53F8086CFC
:1056C00044F8086C103D53F8046C44F8046C0F2D3A
:1056D00003F1100304F11004E8D8A2F1100323F041
:1056E0000F0302F00F0E1033BEF1030F19440344F1
:1056F00021D91E1F0D467446043C55F8047B46F81C
:10570000047F032CF8D8AEF1040424F0030404341D
:105710002144234402F0030262B1013B0A4411F820
:10572000014B03F8014F8A42F9D1F0BD0346F3E77C
:105730000346F2E7F0BD7246EEE700BF002900F035
:1057400095802DE9F04F0D46164683B0804606F150
:105750000B07FFF7B7F955F804EC162F2EF00304EA
:10576000A5F108093CD810221746BE423DD8944204
:1057700043DAC44B996809EB0400884200F0B48016
:10578000436823F0010101444968C9074CD51EF064
:10579000010F00F09B8031464046FEF7F7FD0646BC
:1057A00000283AD055F8043C23F001034B44A0F103
:1057B00008029A4200F02181221F242A00F2078168
:1057C000132A00F2DB8003462A46116819605168EB
:1057D000596092689A6029464046FFF74FFE1CE0E8
:1057E00027F00707002F3A46BFDA00260C23304681
:1057F000C8F8003003B0BDE8F08F2E46E31B0F2B36
:105800001ED8D9F8043003F0010323434C44C9F8EF
:105810000430636843F0010363604046FFF754F9C6
:10582000304603B0BDE8F08F23F00303E118914246
:105830001FDBC36882682E46D3600C469A60DDE7A2
:10584000D9F8042009EB070102F001024C4443F0AF
:1058500001031743C9F804704B60636843F0010308
:10586000083163604046FFF709FED6E71146FEF7B0
:105870008DBD1EF0010F8ED155F8081CA9EB010A51
:10588000DAF8041021F003010B442344934225DB92
:10589000C26881685646CA609160DAF80C1056F802
:1058A000080F221F242AC160886000F29480132A06
:1058B0006FD92968CAF808106968CAF80C101B2A41
:1058C00000F2A28008350AF1100263E055F8083CA6
:1058D000A9EB030ADAF8041021F0030163189342DC
:1058E000FFF659AF5646D8E7416821F0030BA344B1
:1058F00007F11000834556DA1EF0010F7FF44BAF1D
:1059000055F8081CA9EB010ADAF8041021F003018C
:105910008B445845E2DC5646DAF80C1056F8080F6E
:10592000221F242AC160886000F28F80132A40F26F
:105930008A802968CAF808106968CAF80C101B2AFE
:1059400000F28A8008350AF110022968116069683E
:105950005160A96891600AEB0701ABEB070242F0C6
:10596000010299604A60DAF8043003F001031F4332
:105970004046CAF80470FFF7A7F851E72B680360A8
:105980006B6843601B2A2DD800F1080305F108025B
:105990001BE732462968116069685160A968916007
:1059A0001C46D1462AE709EB0701ABEB070B4BF08E
:1059B000010299604A6055F8043C03F001031F435B
:1059C000404645F8047CFFF77FF82E4628E7294635
:1059D000FFF750FEFFE6294630461C46D146FFF74A
:1059E00049FE0BE7AB688360EB68C360242A17D0DD
:1059F00000F1100305F11002E7E650F8043C23F033
:105A000003031C442E46F9E6A968CAF81010E96899
:105A1000CAF81410242A0CD010350AF11802B9E77C
:105A20002B6903616B69436105F1180200F11803EA
:105A3000CBE62A69CAF818206A69CAF81C2018350A
:105A40000AF12002A6E732467FE729463046019355
:105A5000FFF710FE019B7EE7A968CAF81010E968FD
:105A6000CAF81410242A03D010350AF118026CE782
:105A70002A69CAF818206A69CAF81C2018350AF180
:105A8000200262E74004402021B1FF2A04D80A70B6
:105A900001207047084670478A2303604FF0FF30AB
:105AA000704700BF81F0004102E000BF83F0004377
:105AB00030B54FEA41044FEA430594EA050F08BFA9
:105AC00090EA020F1FBF54EA000C55EA020C7FEA6D
:105AD000645C7FEA655C00F0E2804FEA5454D4EBEA
