:020000040040BA
:10000000202B4020351240003312400033124000B4
:100010003312400033124000331240000000000051
:10002000000000000000000000000000331240004B
:100030003312400000000000331240003312400031
:10004000331240003312400033124000331240009C
:10005000331240003312400033124000331240008C
:100060003312400000000000250F4000390F40000F
:100070004D0F400033124000331240003312400055
:10008000610F4000750F40003312400033124000F2
:10009000331240003312400033124000331240004C
:1000A0007D03400033124000331240003312400001
:1000B00033124000410E4000331240003312400022
:1000C000331240003312400033124000331240001C
:1000D0000000000033124000000000003312400016
:1000E000550E4000331240003312400033124000DE
:1000F00033124000331240003312400033124000EC
:1001000033124000331240003312400033124000DB
:10011000331240000000000000000000000000005A
:1001200033124000331240003312400033124000BB
:100130003312400000000000331240003312400030
:1001400010B5054C237833B9044B13B10448AFF311
:1001500000800123237010BDB4094020000000007E
:10016000804540000C4B43B10C480D4910B5AFF32E
:1001700000800C48036823B910BD0A48036833B9EE
:100180007047094B002BF7D0BDE810401847064BCD
:10019000002BF5D0184700BF00000000804540004C
:1001A000B80940208045400000000000044B0B22AD
:1001B0005A669A6E034B1A600122034B1A707047FD
:1001C00000C00340D0094020D4094020F0B583B0DE
:1001D00005460C46002301932A4B984213D02A4B24
:1001E000984218D0294B98421DD0294B9D4222D0CD
:1001F000284B9D4227D0284B9D422ED0274B9D4215
:1002000035D003B0F0BD1F46254E21463846B047D5
:100210000028FAD1E9E71F46214E21463846B0476B
:100220000028FAD1E4E71F461D4E21463846B04764
:100230000028FAD1DFE71F46194E21463846B0475D
:100240000028FAD1DAE71E46164D01A93046A84724
:100250000028FAD1019B2370D3E71E46114D01A956
:100260003046A8470028FAD1019B2370C9E71E46F3
:100270000C4D01A93046A8470028FAD1019B2370F4
:10028000BFE700BF00080E40000A0E40001A0E40F3
:10029000001C0E40004002400080024000C00240AE
:1002A0000F1140001B12400070B50C462A4B9842BB
:1002B00013D02A4B984219D0294B98421FD0294B72
:1002C000984225D0284B98422BD0284B984231D0C9
:1002D000274B984237D0002070BD1E46254D214641
:1002E0003046A8470028FAD1012070BD1E46214D96
:1002F00021463046A8470028FAD1012070BD1E468D
:100300001C4D21463046A8470028FAD1012070BD77
:100310001E46184D21463046A8470028FAD1012034
:1003200070BD1E46144D21463046A8470028FAD11C
:10033000012070BD1E46104D21463046A8470028BA
:10034000FAD1012070BD1E460B4D21463046A8470C
:100350000028FAD1012070BD00080E40000A0E40AE
:10036000001A0E40001C0E40004002400080024077
:1003700000C00240FD1040000512400030B58DB0B5
:1003800001212248224B98470B900B9B214C04AB38
:10039000009307AB06AA05A920461F4DA84708AB46
:1003A00009AA0AA920461D4CA04702221C4B1A602C
:1003B0001C4B1B780BB90DB030BD0022194B1A70C5
:1003C000194B1B6840F6E44202FB03F2174BA3FBF8
:1003D0000213D21A03EB5203DB0AA3F5347264232F
:1003E00003FB02F3124A82FB03121A44DB17C3EB2E
:1003F000E2131B330293059B0193069B0093079B1B
:10040000099A0A990B480C4CA047D4E700C0004059
:10041000BF08400060180E406107400077064000AA
:1004200000C00340D4094020D00940200101100041
:10043000059CA28C544340003515400030B585B072
:100440001820144B9847144D009502AB03AA294677
:100450000120124CA047124C029A42F48042012122
:100460002046104B9847039AB5FBF2F20121204633
:100470000D4B98474FF080720C4B1A6010220121EF
:1004800020460B4B9847012120460A4B984705B060
:1004900030BD00BFA910400000A3E111C708400013
:1004A00000C000408D084000AF08400000E100E0BF
:1004B000B7084000A708400030B583B002200C4BBD
:1004C00098470C4C002120460B4B98470D23009376
:1004D0001B23032240F2E1712046084DA847002368
:1004E000062209212046064CA04703B030BD00BFBC
:1004F000A910400060180E4061064000D50740007A
:10050000D106400080B590B0384B98470A20384C4F
:10051000A0470B20A0470C20A0471020A047112087
:10052000A047344B98470E20A047334E334B1E60F4
:10053000334A344B1A60344A344B1A604FF4E13377
:100540000193C02302934FF400670397002504959D
:1005500005950E20A0472E4A01A930462D4B9847FD
:1005600030462D4B984730462C4B98472C4E3368DD
:10057000294698682B4CA047336829465868A047FD
:1005800029482A4B98472A4C20462A4B98470AA8C4
:10059000294B98470AA92046284B9847636823F0BF
:1005A0008F0363600123264A0B212046254EB04766
:1005B00009A8254B98478DF8255009AA0B212046FC
:1005C000224B98470B2363664FF40073E36607A83A
:1005D0001F4B984707A920461E4B98476761022387
:1005E00023601D4B98471D4B9847FEE73909400093
:1005F000A9104000350A400000800240940A4020C3
:10060000A9024000900A4020CD0140008C0A402001
:1006100080D1F008A5114000F9114000FF11400001
:1006200008004020711640008843400061164000D9
:1006300000C00340690E4000990C4000E90C4000E6
:10064000AD014000E90D4000C90C4000550C4000D0
:10065000D30C4000850C40003D044000B90440002C
:1006600021B9436823F0010343607047436843F0B6
:1006700001034360704730B485688468A54203D0A5
:1006800085688468AC42FBD161B1C4F3015000EBD2
:100690008005C4F3034000EB450014F4800F18BF3D
:1006A0000C30086042B1C4F3023101EB8101C4F3A4
:1006B000032000EB4101116043B1C4F3021202EBCD
:1006C000820204F00F0404EB42041C6030BC70474B
:1006D000F0B4446814F0010F05D00C2903D90C398B
:1006E0004FF4800700E000271C4CA4FB0356F608DB
:1006F00006EB8605A3EB450343EA0613A4FB02655C
:10070000ED0843EA053305EB8505A2EB450543EA11
:1007100005233B43A4FB0142D20843EA025302EB08
:100720008202A1EB420143EA0141836913F0040F05
:10073000FBD0036843F001030360836913F0010FEA
:10074000FBD00123C3618160036823F001030360D0
:10075000C06A00F00100F0BC704700BFCDCCCCCC2B
:10076000F0B4049EC568C468A54203D0C568C468D7
:10077000AC42FBD199B1C4F3033000EB8000C4F369
:10078000032707EB4007C4F3021000EB800504F0D9
:100790000F0000EB4500642505FB0070086042B1C6
:1007A000C4F3005081000844C4F3034101EB40014D
:1007B000116043B1C4F3017202EB8202C4F303611E
:1007C00001EB42021A6016B1C4F342543460F0BC2B
:1007D0007047000070B42A4DA5FB0346F608039C41
:1007E000640544EA067406EB8606A3EB460344EA76
:1007F0000363A5FB0264E40843EA045304EB8404A6
:10080000A2EB440243EA02421E4BA3FB01439B09B5
:1008100042EA03121C4BA3FB01435B09A5FB0364E3
:10082000E40804EB8404A3EB44031A43A5FB01434F
:10083000DB0803EB8304A1EB440142EA0122A5FBA0
:100840000315ED0805EB8505A3EB450542EA0532E6
:10085000836913F0040FFBD0036843F002030360C5
:10086000836913F0010FFBD00123C361C2600368E9
:1008700023F002030360C06A00F0020070BC7047FE
:10088000CDCCCCCCD34D62101F85EB5110B4890177
:100890004318022444504FF0FF319962196A5A609C
:1008A0005DF8044B7047890105234350704700EB06
:1008B0008111CA61704700EB81114A62704700EBF9
:1008C0008111086A7047F0B486B0022401940824AC
:1008D000029420240394802404940A9CE40B05943D
:1008E000B0EB510F14D84C0CA04217D2012501AF28
:1008F00057F82540B1FBF4F4260C84420AD3864213
:100900000DD90135052DF3D1002006B0F0BC70479C
:100910000020FAE70020F8E70120F6E700252AB1D9
:1009200006A901EB850151F8141C1160002BF3D0CE
:100930001D600120E9E7000010B51048104B9847F2
:100940003E2100200F4B98470F4CA0470028FCD0B9
:100950000E4B98470E4A0F4B9A620F4CA047002847
:10096000FCD002200D4B984700200D4B98470D4BB3
:1009700098470248024B984710BD00BF00A3E11101
:1009800009144000251040007910400089104000F3
:10099000013F182000060E4099104000890F4000CA
:1009A000C10F4000FD1240002DE9F04180B90C4616
:1009B0009046002A0FDD8F18084E094D30682146F9
:1009C0002B6898470134BC42F8D14046BDE8F0811D
:1009D0004FF0FF38F9E78046F7E700BF940A402060
:1009E0008C0A40200138022815D82DE9F0410E4626
:1009F00014469AB10D46DFF838800C4FD8F8000045
:100A000015F8011B3B68984700280ADBA81B013C2E
:100A1000F4D1BDE8F0814FF0FF3070471046BDE8DB
:100A2000F0814FF0FF30BDE8F08100BF900A402018
:100A3000940A4020F8B54FF400425C4B5A60BFF373
:100A40004F8FBFF36F8F5A4B0022C3F850225A6961
:100A500042F400325A61BFF34F8FBFF36F8FD3F868
:100A60008070C7F34E3607F007000430C7F3C9079C
:100A7000B7FA87FE0EF01F0EBFF34F8F4FF0FF3413
:100A800004FA00FC06FA00F004FA0EF407FA0EFE6F
:100A90001D463A46734640EA0301C5F86012013A22
:100AA0002344B2F1FF3FF6D1013E6044B6F1FF3F6F
:100AB000EFD1BFF34F8F3E4B5A6942F480325A61F7
:100AC000BFF34F8FBFF36F8F3A4A3B495160A1F597
:100AD00080715160BFF34F8FBFF36F8FD3F89022B7
:100AE00022F00102C3F89022D3F8942222F00102EE
:100AF000C3F89422BFF34F8FBFF36F8F0A202F4CA0
:100B0000A0470B20A0470C20A0471020A047112091
:100B1000A0472B4B4FF480721A61C3F8A0201A63D0
:100B2000A3F580634FF400625A61C3F8A0205A66AF
:100B3000C3F890205A651A62C3F88420196F21F413
:100B400000611967596F21F400615967C3F8C0202B
:100B5000C3F8D420C3F8B0204FF400121A66C3F8CB
:100B600090205A655A62C3F88020196F21F4001151
:100B70001967596F21F4001159675A60114AD2F868
:100B8000143143F01003C2F814310F4B10221A66CF
:100B9000C3F890205A655A62C3F88020196F114338
:100BA0001967596F114359675A60F8BD50180E40C4
:100BB00000ED00E0000C0E400C08005AA9104000A7
:100BC00000120E400080084000100E4070B582B048
:100BD000026BC36A1340019300241C4E1C4DA842B3
:100BE00014BF0020012005010BE00E2C1ED8019A35
:100BF00004F10C0101238B40134210D10134102C5D
:100C000022D00B2CF1D8019A0123A3401342F5D036
:100C10002B1956F82330002BF0D09847EEE72B190C
:100C200056F82330002BE9D09847E7E7019A04F102
:100C30000F0101238B401342E0D02B1956F82330CB
:100C4000002BDBD09847D9E702B070BD980A40204E
:100C50000040064030B4046E01238B4024EA0304B4
:100C60001578002D08BF002323430366446D4B0015
:100C70000321994024EA01045178994021434165B8
:100C800030BC70474B780A78134303678A884B88D7
:100C900043EA02434367704700220260084B436007
:100CA000084B83604FF48023C36002230374012345
:100CB00043748374C274037543758375704700BFB2
:100CC00000A3E111808D5B000023037001234370BA
:100CD00070470023037020234370FF23438040F6B6
:100CE000FF73838070470000026B12F0807201D0A6
:100CF0001920704710B401230360CB7C002B18BF70
:100D00004FF000424B688C68B3FBF4F3013B1B02CD
:100D10009BB2CC6844F4000423430C7C240604F00A
:100D2000706423434C7C240704F040542343134352
:100D300043600B7D002B14BF4FF0807300230A68C3
:100D400013434A7D002A14BF4FF000720022134360
:100D500083608B7D1B0203F4407343F00C03C0F8E7
:100D600094300F4B984206D00E4B98420DD0002085
:100D70005DF8044B70470C4B03F14001002243F82F
:100D8000042F8B42FBD10020F2E7084B03F1400116
:100D9000002243F8042B8B42FBD10020E8E700BF80
:100DA00000C0034000400640940A4020D80A40207A
:100DB0000C4B994207D00B290BD806D0012303FA1C
:100DC00001F141627047436270474FF40063436230
:100DD00070470E2994BF0C310F31012303FA01F142
:100DE00041627047FF0F004738B5114CA0420CBF5D
:100DF000102400240C440F4D45F824200AD10E4A3B
:100E00004FF48074C2F884415B01DBB282F828336E
:100E1000546009E0084A4FF00054C2F880415B0179
:100E2000DBB282F81D331460044B984738BD00BF15
:100E300000400640980A402000E100E0B10D40006B
:100E400008B50248024B984708BD00BF00C00340E8
:100E5000CD0B400008B50248024B984708BD00BFC3
:100E600000400640CD0B400000B583B0134B9842C4
:100E70000CBF28201D20124B9847124B9B78FF2B4C
:100E80001AD0EFF31083B3FA83F35B09019372B6C0
:100E9000BFF35F8F00220C4B1A700199094A9378B7
:100EA0000133937029B10122074B1A70BFF35F8F92
:100EB00062B603B05DF804FBFEE700BF00400640E9
:100EC000A9104000840A402000004020C06C7047F8
:100ED000806C70472DE9F041044688460E4B9847D8
:100EE000054620460D4B9847054013D00C4C04F1A5
:100EF000600603E0B4420DD010345DB12068404577
:100F0000F8D161682942F5D0E3689847636825EA1B
:100F10000305EFE7BDE8F081CD0E4000D10E4000A3
:100F2000D809402008B50A210148024B984708BD5E
:100F3000000E0E40D50E400008B50B210148024BB3
:100F4000984708BD00100E40D50E400008B50C2192
:100F50000148024B984708BD00120E40D50E4000D4
:100F600008B510210148024B984708BD00140E40F7
:100F7000D50E400008B511210148024B984708BD25
:100F800000160E40D50E4000032811D0042812D0C0
:100F900002280CBF4FF480710021084A136B23F420
:100FA00040730B431363936E13F0080FFBD070472D
:100FB0004FF44071F1E74FF40071EEE700060E4088
:100FC000174A136B23F0700318431063936E13F0EA
:100FD000080F0AD14FF4805311498A6E12F0080F9E
:100FE00003D1013BF9D1012070470D4A136B23F067
:100FF000030343F002031363936E13F0080F0AD147
:101000004FF4805306498A6E12F0080F05D1013B58
:10101000F9D101207047002070470020704700BFC1
:1010200000060E40A0B90E48036A090289B20D4AB3
:101030001A400D4B1343194301620246936E13F09D
:10104000010FFBD0064A116A084B0B43136270472D
:1010500003490B6A064A1A40064B13430B6270475A
:1010600000060E40FCFFC8FF0100370000003701FA
:10107000FCFFC8FE02003701024B986E00F480307E
:10108000704700BF00060E404FF00052014B9A62BD
:10109000704700BF00060E40024B986E00F0020041
:1010A000704700BF00060E403F281ED81F280CD8EE
:1010B000114B9A6901238340934318D0012303FA0B
:1010C00000F00D4B18610020704720380A4BD3F810
:1010D00008210123834093430BD0012303FA00F03E
:1010E000054BC3F800010020704701207047002025
:1010F00070470020704700BF00060E40436913F0A0
:10110000020F02D0C161002070470120704743697F
:1011100013F0010F03D083690B700020704701208A
:10112000704710B40B01934214D9C9004B0803EB6C
:10113000C202B2FBF1F2D3085C1E4FF6FE718C4284
:1011400001D9012017E0416841F4002141600CE021
:10115000012010E0590801EBC202B2FBF3F2D30800
:101160005C1E4FF6FE718C42F2D8120402F4E022AB
:101170001A43026200205DF8044B7047084BC0F828
:10118000E4300023436043628362882303602423A6
:1011900003604FF4807303604FF4002303607047D3
:1011A0000041535570B505460C4616460F4B9847FF
:1011B00000220F4B1A60A4B13246216828460D4B1D
:1011C0009847024678B96368A1680B4321690B43CD
:1011D000E1680B4306490B6069680B436B6010467E
:1011E00070BD0122FBE70122F9E700BF7D1140003D
:1011F000480A402023114000402303607047102319
:1012000003607047436913F0020F04D0C1F3080173
:10121000C1610020704701207047436913F0010F3E
:1012200005D08369C3F308030B60002070470120D9
:101230007047FEE700B583B0254B264A9A4210D08E
:10124000254B234A9A420CD2013B9B1A23F00303FD
:10125000043313441F4951F8040B42F8040B9A421B
:10126000F9D11E4B1E4A9A420AD2013B9B1A23F027
:10127000030304331344002142F8041B9342FBD1BF
:10128000184A194B23F07F039360EFF31083B3FAEE
:1012900083F35B09019372B6BFF35F8F0022134B98
:1012A0001A700199124A136843F470031360BFF374
:1012B0004F8FBFF36F8F29B101220C4B1A70BFF310
:1012C0005F8F62B60B4B98470B4B9847FEE700BF0A
:1012D0000000402080454000B40940201C0B402005
:1012E000B409402000ED00E0000040000000402074
:1012F00088ED00E0E5144000050540003B4B1B6B0A
:1013000003F00303012B1DD083B1022B36D0374BE2
:101310001B6B03F07003702B5FD0344B1A6B344996
:10132000C2F302120B68D3400B607047314B5B690C
:1013300013F0800F14BF4FF400424FF4FA422C4BCD
:101340001A60E4E7294B1B6A13F0807F03D02A4A16
:10135000274B1A60DBE7294A254B1A60234B1B6A8F
:1013600003F07003102B05D0202BD0D1224A204B44
:101370001A60CCE7224A1E4B1A60C8E71B4B1B6A57
:1013800013F0807F16D01C4A194B1A60174B1B6B49
:1013900003F00303022BBAD1144A916A926A1448EB
:1013A000C1F30A41036801FB0333D2B2B3FBF2F38A
:1013B0000360ACE7114A0E4B1A600C4B1B6A03F03A
:1013C0007003102B05D0202BE0D10B4A084B1A607C
:1013D000DCE70B4A064B1A60D8E7054A136809494F
:1013E000A1FB03135B081360704700BF00060E40AB
:1013F0000400402010180E40001BB70000093D00FB
:1014000000127A00ABAAAAAA164B984213D9164B1F
:10141000984215D9154B984216D9154B984217D9B1
:10142000144B984218D9144B984294BF134A144A4B
:10143000144B1A6070474FF08062124B1A6070476D
:10144000114A104B1A607047104A0E4B1A607047D1
:101450000F4A0C4B1A6070474FF00422094B1A6078
:10146000704700BFBFF35E017FE7BD023FDB1C0496
:10147000FFCE7B05BFC2DA067FB63908000500043F
:1014800000060004000C0E400001000400020004ED
:10149000000300040A4B1B6853B1094B1B681A1860
:1014A0000849914208DB1046054A1060184670470B
:1014B000054A034B1A60F0E74FF0FF30704700BF5A
:1014C0004C0A4020FCFF4520202D40204FF0FF30EB
:1014D00070474FF400534B60002070470120704765
:1014E0000020704770B50F4E0F4D761BB61018BF19
:1014F000002405D0013455F8043B9847A642F9D1A1
:101500000A4E0B4D761B03F025F8B61018BF0024C9
:1015100006D0013455F8043B9847A642F9D170BD76
:1015200070BD00BF60454000604540006845400018
:10153000604540000FB400B5074983B004AB0868AC
:1015400053F8042B8168019300F008FA03B05DF8AA
:1015500004EB04B0704700BF0800402070B4860759
:1015600046D0541E002A41D0CAB2034602E014F10C
:10157000FF343BD303F8012B9D07F8D1032C2ED960
:10158000CDB245EA05250F2C45EA054519D903F1E9
:1015900010022646103E0F2E42F8105C42F80C5CFA
:1015A00042F8085C42F8045C02F11002F2D8A4F19F
:1015B000100222F00F0204F00F041032032C134427
:1015C0000DD91E462246043A032A46F8045BFAD88F
:1015D000221F22F003020432134404F003042CB14E
:1015E000C9B21C4403F8011B9C42FBD170BC70477C
:1015F00014460346C2E700BFF0B5054689B0084669
:101600000C4600F0FDF8AB6B144F04940126441C0B
:1016100004A9022203940590AC68069707960191ED
:101620000292B3B1B4F90C309A0406D4626E43F45A
:10163000005322F40052A38162662146284601AA83
:1016400001F026FB002814BF4FF0FF300A2009B03C
:10165000F0BD284601F060F9E4E700BFEC4340002C
:10166000024B01461868FFF7C7BF00BF08004020C3
:1016700000290CBF022200224FF4806300F000B862
:101680002DE9F043504C256883B004460F46904640
:101690001E4615B1AB6B002B77D0B8F1020F04D00A
:1016A000B8F1010F7DD8002E7BDB2146284601F0E2
:1016B0009FF8216B41B104F14003994202D02846C2
:1016C00001F000FA00232363B4F90C300022A26178
:1016D00062601A0652D423F44A6323F00303B8F17C
:1016E000020FA38137D001AB6A462146284601F09C
:1016F0007FFCA3891843A08116B317B3AB6B002BF3
:101700004BD0009B27609E42B4F90C3027611CBF70
:1017100043F40063A381B8F1010F04BF43F0010358
:10172000A3819BB213F00800666123D013F001007F
:101730002FD000207642A661A06003B0BDE8F08300
:10174000009E304601F0C6FC074668B3A38943F00B
:101750008003A381D2E7002004F1430243F0020397
:1017600000250121A381A56022602261616103B08F
:10177000BDE8F083A06003B0BDE8F083216928468E
:1017800001F0A0F9B4F90C30A5E7284601F0C4F83F
:1017900083E7A66003B0BDE8F083284601F0BCF8FB
:1017A000AFE74FF0FF30E2E7DDF80090B14506D03B
:1017B000484601F08FFC074608B14E46C6E7B4F92B
:1017C0000C304FF0FF30C7E7080040200000000059
:1017D0000000000000000000000000000000000009
:1017E00000000000000000000000000000000000F9
:1017F00000000000000000000000000000000000E9
:1018000090F800F06DE9024520F007016FF0000C40
:1018100010F0070491F820F040F049804FF00004E8
:101820006FF00700D1E9002391F840F000F10800C3
:1018300082FA4CF2A4FA8CF283FA4CF3A2FA8CF3FB
:101840004BBBD1E9022382FA4CF200F10800A4FA62
:101850008CF283FA4CF3A2FA8CF3E3B9D1E90423B6
:1018600082FA4CF200F10800A4FA8CF283FA4CF3ED
:10187000A2FA8CF37BB9D1E9062301F1200182FAA7
:101880004CF200F10800A4FA8CF283FA4CF3A2FAAD
:101890008CF3002BC6D0002A04BF04301A4612BABB
:1018A000B2FA82F2FDE8024500EBD2007047D1E9BE
:1018B000002304F00305C4F100004FEAC50514F04D
:1018C000040F91F840F00CFA05F562EA05021CBF1E
:1018D00063EA050362464FF00004A9E72DE9F84FDB
:1018E0004B6E9C0493462FD59368126853B30E46F3
:1018F000074602F1080919E920045FEA9A0817D09F
:10190000043D002401E0A04510D0324655F8041FE4
:10191000384601F075F8431C04F10104F3D10023AB
:10192000CBF80830CBF80430BDE8F88FDBF808308E
:101930002AF0030AA3EB0A03CBF8083009F10809DF
:10194000002BD8D10020EAE701F0A2F90023CBF860
:101950000830CBF80430BDE8F88F00BF2DE9F04F18
:10196000ADB01D46019191460893069018B1836B66
:10197000002B00F0E080019CB4F90C0081B28B04D4
:1019800007D4636E40F4005123F40053A1816366D1
:1019900089B20F0740F1B180019B1B69002B00F059
:1019A000AC8001F01A010A2900F0B58000230DF186
:1019B000700B0B93119310930493CDF83CB0DA465F
:1019C00099F800304C46FBB1252B02D11CE0252BA9
:1019D00003D014F8013F002BF9D1A4EB09059DB108
:1019E000109B119ACAF8009001332A44072BCAF8B9
:1019F0000450119210937ADD002A40F08F84049BEA
:101A000010922B44DA4604932378002B00F0B18324
:101A100000204FF000038DF8373004F1010962789F
:101A20000546064603464FF0FF3409F10109A2F1CD
:101A30002001582900F20E83DFE811F037020C0371
:101A40000C03EB020C030C030C030C030C030C0340
:101A50009E02F0020C03820077020C03CF01D40136
:101A6000D401D401D401D401D401D401D401D401CE
:101A70000C030C030C030C030C030C030C030C03EE
:101A80000C030C033F020C030C030C030C030C03AC
:101A90000C030C030C030C030C0346020C030C0395
:101AA0000C030C030C034A020C030C0352020C033C
:101AB0000C030C030C030C030C030C030C030C03AE
:101AC0000C03E201F6010C030C030C030703F601FF
:101AD0000C030C0391020C03F5028700B102C30250
:101AE0000C03C8020C03BD010C030C03AA020AF18B
:101AF000080A049B2B44049386E7019C0698214620
:101B000000F062FD002840F04083A18901F01A0135
:101B10000A297FF44BAF0199B1F90E30002BFFF683
:101B200045AF2B464A46069800F018FD04900498ED
:101B30002DB0BDE8F08F00F0EFFE1CE77642089272
:101B400043F0040399F800206FE7079613F0200292
:101B500040F05A8413F0100140F0F18313F040027A
:101B600000F0ED8308980A46014604310688089182
:101B700000274FF000018DF837100025611C00F0A0
:101B8000758123F08001039156EA070140F07381CB
:101B9000002C40F05683002A40F0B28313F001037A
:101BA000059300F047840DF1B008302308F8413D5B
:101BB000059BA342B8BF234602930DB101330293A4
:101BC000039B13F00203099302D0029B023302939A
:101BD000039B13F084030A9340F06382079B029AED
:101BE0009D1A002D40F35D82102D40F37784109BE9
:101BF000119AB94ED6461027A2461946069C07E010
:101C000001F1020C0EF1080E0146103D102D11DD00
:101C1000481C1032072811928EE8C0001090EFDDAA
:101C2000002A40F03182103D102D11464FF0010C7A
:101C3000DE46EDDC54466146F2462A4407291192FD
:101C4000CAF80060CAF80450109100F3E6829DF8CB
:101C500037500AF1080A481C002D40F02A82099BDF
:101C6000002B00F0448202320EA9022307281192B1
:101C700010908AE80A0040F33682002A40F08B83F5
:101C80000A9B802B4FF001001146DA4640F0338268
:101C9000079B029D5E1B002E40F32D82102E8F4D60
:101CA00040F32F84D4461027A246069C07E001F19A
:101CB000020E0CF1080C0146103E102E11DD481CDE
:101CC0001032072811928CE8A0001090EFDD002A56
:101CD00040F09682103E102E4FF0010E1146DC4669
:101CE000EDDC5446E2463244BEF1070F11928AE819
:101CF0006000CDF840E000F35B83059BE41A002C04
:101D00000AF1080A0EF10100714600F3F981059904
:101D1000CAF800800A4407281192CAF804101090EB
:101D200040F35582002A40F0EE82039B1092580740
:101D300038D5079B02995C1A002C40F3BA82DA4628
:101D4000102C40F3DA831099634E069FDDF804806F
:101D5000102506E0881C0AF1080A1946103C102CD0
:101D600013DD4B1C1032072B1192CAF80060CAF821
:101D700004501093EEDD002A40F00B82103C102C32
:101D80004FF001001146DA46EBDC2244072811929D
:101D9000CAF80060CAF80440109040F32382002A79
:101DA00040F06783049B079A02998A42ACBF9B1854
:101DB0005B1804931FE207969E0600F119830899A9
:101DC000DD060A4600F1B582580640F1B2820E885F
:101DD0000431002701220891CBE643F0800399F8F3
:101DE000002022E6A2F13001002619F8012B06EBB3
:101DF000860601EB4606A2F130010929F5D916E65F
:101E0000089907960A688DF848204FF000000A46A6
:101E10008DF83700043201200290089205900DF1F0
:101E2000480803930024CBE60796002840F08283FD
:101E30009E0600F1D182DD0600F18D82580640F148
:101E40008A82089DB5F900602A46F71704323046A9
:101E500039460892002871F10002C0F2EE82611C3E
:101E60009DF837504FF001027FF48BAE56EA070120
:101E700000F0E8810393012A00F02582022A40F055
:101E8000F5810B98D846330906F00F0143EA077332
:101E90003A091E461746435C08F8013D56EA070317
:101EA000F1D1ABEB0803059382E699F80020002DF1
:101EB0007FF4BBAD01202025B7E50796002840F050
:101EC000368343F01003B3E7079643F010033DE673
:101ED000079643F010036FE7204440003044400071
:101EE0000796002840F02C83B0490B919F0600F123
:101EF00097820898DE06014600F128825D0640F1CF
:101F000025820431068808910027D80740F1D9813D
:101F100056EA070100F0D58130218DF8392043F0D1
:101F200002038DF83810022223E699F800202A2AAD
:101F300009F1010700F0F082A2F130010929B94648
:101F40004FF000043FF673AD19F8012B04EB840445
:101F500001EB4404A2F130010929F5D967E599F8AC
:101F600000206C2A03BF99F8012043F0200309F1F7
:101F7000010943F0100358E508990E680A46002E3F
:101F800002F10402FFF6DAAD089299F800204CE560
:101F90000796002840F0DA8285490B91A6E7089859
:101FA000834A07960B9206687822302104308DF818
:101FB000392043F00203089000278DF838100222E0
:101FC000D7E543F0200399F800202EE508990796FD
:101FD000D1F800804FF000028DF837200E1DB8F1C7
:101FE000000F00F08182671C00F060822246002111
:101FF0004046029301F03CFB029B002800F08482E3
:10200000A0EB08020592089603939DF83750002430
:10201000CEE543F0010399F8002006E599F8002089
:1020200001202B2501E5002840F08782990600F168
:102030003182DA0621D45B061FD5089A1368043270
:102040000892BDF810201A80BAE443F0400399F8D2
:102050000020EAE40796002840F07582002A00F08C
:10206000888001218DF848204FF0000202918DF800
:10207000372005910DF14808D3E6089A1368043219
:102080000892049A1A609BE40FAA01992046FFF770
:1020900025FC002874D11099119A01F1010CDE463B
:1020A000B3E51099119A481C9DF83750002D3FF464
:1020B000D6AD01320DF1370501210728119210909C
:1020C000CAF80050CAF8041040F3B680002A40F065
:1020D0005581099B002B3FF4D3AD0EAB022208467D
:1020E0001C931D92DA4601460AF1080A01300A9B48
:1020F000802B3FF4CDAD059BE41A002C7FF707AE93
:10210000102C2C4D1DDDD6461026069FDDF804A0B0
:1021100006E0881C0EF1080E1946103C102C0FDD4D
:102120004B1C1032072B11928EE860001093F0DDEB
:10213000A2B9103C102C4FF001001146DE46EFDC36
:10214000F246224407281192CAF80050CAF8044007
:10215000109031DC0AF1080A0130D8E50FAA514687
:102160003846FFF7BBFB58B91099119A481CDE4658
:10217000D3E7119B23B1069801990FAAFFF7AEFB95
:10218000019B9B895B067FF5D2AC4FF0FF33049334
:10219000CDE40FAA41463846FFF7A0FB0028EFD157
:1021A0001099119A481CDA46D8E500BFF043400068
:1021B0000444400030444000002A40F00081059A69
:1021C0001D9201231192CDF870801093DA460AF126
:1021D000080A039B590705D5079B02995C1A002C36
:1021E0003FF7AEAD049B079902988142ACBF5B18E4
:1021F0001B1804937ABB00231093DA46FFF7E0BB69
:102200000FAA01992046FFF769FB0028B8D1109961
:10221000119A01F1010EDC464EE5002A40F01C81C6
:102220009DF83710002900F0118101220DF13701CE
:1022300010461D921C91DA4601460AF1080A013047
:102240000DE5039B012A00F09080022A0BD1039335
:102250000026002715E60FAA01990698FFF73EFB16
:102260000028C8D08CE7039300260027594600E0D9
:102270004146F20842EA4772F80806F007030746AB
:102280001646303356EA070201F8013C01F1FF38E7
:10229000EED1039AD6077FF504AE302B3FF401AEA2
:1022A0000239302308F8013CABEB01030593884663
:1022B0007EE4049B079A8A42ACBF9B185B18049388
:1022C00099E7022255E4002F08BF0A2E4CD3D846C6
:1022D000304639460A22002301F0B4FE303208F8B5
:1022E000012D3046394600230A2201F0ABFE064696
:1022F0000F4656EA0703EBD1ABEB0803059357E40F
:102300000594D84654E40FAA01990698FFF7E6FA17
:1023100000287FF435AF119ADA465AE70FAA0199DF
:102320000698FFF7DBFA00287FF42AAFDA46FFF7BA
:10233000E0BB0431166808910122002719E40898CF
:102340000146043106680891002712E40E68043142
:1023500008910027D9E508990E680A46F717043254
:1023600008923046394675E5039B03930DF1B0089A
:102370003036012308F8416D059319E40FAA01993D
:102380000698FFF7ABFA00287FF4FAAE1099119A7D
:10239000481CDA4663E40FAA01990698FFF79EFAF3
:1023A00000287FF4EDAE1099119A481CDA469EE69B
:1023B000002A40F0868001201146DA469BE60FAAEB
:1023C00001990698FFF78AFA00287FF4D9AE109891
:1023D000119A0130DA469AE4089E073626F007067D
:1023E000D6E9000106F10802089206460F4631E5DB
:1023F000089E073626F0070202F10801D2E90067BD
:1024000008910122FFF7B5BB089E073626F00702A8
:1024100002F10801D2E9006708910022FFF7A9BB89
:10242000089E073626F0070101F108000890D1E95F
:1024300000676AE5D846FFF7BBBB2D25764267EB00
:1024400047078DF837500122FFF798BB099BD3B996
:1024500011460120DA464EE60FAA01990698FFF7C9
:102460003DFA00287FF48CAE1099119A481CDA4688
:102470001AE60FAA01990698FFF730FA00287FF4B0
:102480007FAE119AAEE60EAB02221C931D92012084
:10249000DA4628E6089A04991368CD1708460432EC
:1024A00029460892C3E90001FFF78ABA4046089618
:1024B0000393FFF7A5F9002405909DF83750FFF727
:1024C00077BB0FAA01990698FFF708FA00287FF456
:1024D00057AE1099119A481CDA460CE61099119AD9
:1024E0001C4E0131FFF7A9BB062C28BF062405941A
:1024F00008960294DFF8608093E41098154E01303E
:1025000043E48646FFF7EFBB05949DF837500896E5
:1025100003930446FFF74CBB089999F801200C6817
:10252000043144EAE474B9460891FFF77EBA8DF8A5
:102530003750C6E48DF837507AE48DF8375075E59A
:102540008DF83750D0E48DF8375087E58DF8375047
:1025500022E500BF2044400018444000F0B50C467E
:10256000ADF26C4D8989666EE589199621F00201FC
:10257000666AADF80E500025E769ADF80C100996B3
:1025800006951AAE4FF4806569460096049602954A
:10259000059507970646FFF7E1F9051E07DB30466C
:1025A000694600F025F9002818BF4FF0FF35BDF847
:1025B0000C305B0603D5A38943F04003A381284672
:1025C0000DF26C4DF0BD00BF38B5304B1B680546B1
:1025D0000C4613B19A6B002A38D0B4F90C2093B290
:1025E00018070CD52069A8B113F001021ED0636949
:1025F00000225B42A361A260F0B1002038BDD90681
:102600003CD5580726D4206942F00803A3819BB229
:102610000028E9D103F42072B2F5007FE4D0284607
:10262000214600F013FDA3892069DDE7990758BF13
:102630006269A2600028E0D1B4F90C301A06DDD539
:1026400043F04003A3814FF0FF3038BD184600F03F
:1026500063F9C2E7216B51B104F14003994204D000
:10266000284600F02FFAB4F90C200023236300233E
:102670002069636022F024022060C5E742F0400236
:1026800009232B604FF0FF30A28138BD08004020A5
:10269000024B13B1024800F005B87047000000007B
:1026A0002D294000002301461A46184601F0D4BBEC
:1026B000B1F90C309AB22DE9F0410D461107804670
:1026C0003AD46A6843F40063002AAB816FDDAC6AD8
:1026D000002C49D000229BB2D8F80060C8F8002036
:1026E00013F4805267D02A6D5F0705D569682B6B9C
:1026F000521A0BB1EB6BD21A0023E9694046A0478E
:10270000441C3CD0B5F90C302A692A6023F40063DC
:102710000022AB81DB046A6047D4296BC8F80060F3
:1027200011B305F14003994202D0404600F0CAF9C6
:1027300000202863BDE8F0812E69AEB12C682E60C0
:1027400091070CBF6B690023A41BAB600AE0234612
:1027500032466F6AE9694046B8470028A4EB000496
:10276000064404DD002CF2DC0020BDE8F081AB89DA
:1027700043F04003AB814FF0FF30BDE8F081D8F863
:1027800000401D2CF3D8194BE340DB4313F0010349
:10279000EDD1B5F90C206B6022F400632969AB819F
:1027A000DA042960B9D5002CB7D12865B5E7EA6B02
:1027B000002A8CDCD8E70123E9694046A047431C86
:1027C000024602D0AB89AC6A8EE7D8F80030002B05
:1027D000F8D01D2B01D0162B02D1C8F80060C3E73A
:1027E000AB8943F04003AB81BDE8F081010040209C
:1027F00010B5044682B008B1836B53B1B1F90C0037
:1028000008B902B010BD204602B0BDE81040FFF785
:102810004FBF019100F080F80199EFE7014900F006
:10282000AFBB00BF213F40002DE9F04F354B45685D
:10283000C3630024074600F53B7204230321C0F85C
:10284000E412C0F8E822C0F8E04283B02C606C606B
:10285000AC606C66EC812C616C61AC61AB81214633
:1028600005F15C000822FEF779FEBE68DFF898B03B
:10287000DFF898A0DFF89890DFF89880C5F820B0CE
:1028800001230922C5F824A0C5F82890C5F82C809A
:10289000ED612146F381B28106F15C003460746021
:1028A000B460746634617461B46108220193FEF708
:1028B00055FEFD68F66112200222C6F820B0C6F867
:1028C00024A0C6F82890C6F82C802146A881EA8169
:1028D0002C606C60AC606C662C616C61AC6105F165
:1028E0005C000822FEF73AFE019BED61C5F820B0BE
:1028F000C5F824A0C5F82890C5F82C80BB6303B0A8
:10290000BDE8F08F1D284000853C4000A93C4000F8
:10291000E53C4000053D4000836B03B17047FFF785
:1029200083BF00BF704700BF704700BF38B50A4C77
:102930000A4D641BA4100AD004F18043013B05EB4F
:102940008305013C55F804399847002CF9D1BDE8BE
:10295000384001F009BE00BF784540007445400092
:102960002DE9F04782B080468946144600F032FBDC
:10297000012836D04A4604F15C0301A9404601F023
:102980001DFA421C064625D0A8B39DF804E0002598
:102990000DF1040A09E023685A1C226083F800E064
:1029A0000135B54227D215F80AE0A368013B002B98
:1029B000A360F0DAA769BB4271462246404602DBBB
:1029C000BEF10A0FE7D101F0A1F9431CE8D102B032
:1029D000BDE8F087A38943F04003A38102B0BDE8BE
:1029E000F08709F1FF33FE2BC4D85FFA89FE064653
:1029F0008DF804E0CBE7484602B0BDE8F08700BFA1
:102A0000B2F90C3013F4005F0AD110B4546E43F4E1
:102A1000005344F400545466938110BCFFF7A0BFE8
:102A2000FFF79EBFF8B5244F0C46064600F06EFF38
:102A3000BB685D68C4F57E610F3125F0030529444C
:102A400021F47F6121F00F01A1F58054B4F5805F7E
:102A500007DB0021304601F003F9BB682B449842A4
:102A600004D0304600F054FF0020F8BD61423046EB
:102A700001F0F6F801300DD0104BBA6819682D1B23
:102A800045F001053046091B5560196000F040FF14
:102A90000120F8BD0021304601F0E2F8BA68831A3F
:102AA0000F2BDEDD064C0549246843F00103001BB3
:102AB00053600860D5E700BFA4054020500A4020BD
:102AC000AC094020002944D02DE9F0410D46804654
:102AD00000F01CFF55F8047C694927F00103A5F1BB
:102AE0000804E2188E685068B24220F003005ED0FD
:102AF000FE0750600BD455F8087CE41B01F1080E6A
:102B0000A56875453B446DD0E768EF60BD6015185A
:102B10006D68ED073ED543F001026260E350B3F506
:102B2000007F17D2DB08581C9A104D6851F830709E
:102B3000A7600123934001EBC0022B43083AE260F7
:102B40004B6041F83040FC604046BDE8F04100F089
:102B5000DFBE70475A0A042A52D89A0902F139078F
:102B6000FF0002F13805C819CA59083890424FD001
:102B7000516821F003018B4232D292689042F7D122
:102B8000C368A060E3609C60C4604046BDE8F0415B
:102B900000F0BEBE95683B4FBD42034440D0D068B4
:102BA000E86043F0010285606260E350B7E7FF0729
:102BB000034407D455F8082CA41A1344A068E2680B
:102BC000C2609060304A126843F001009342606036
:102BD0008C60B9D32D4B40461968FFF723FFB3E74C
:102BE0001046CDE711184968C90744D49168D268E6
:102BF000CA60034443F0010091606060E350A3E7C2
:102C0000142A16D802F15C07FF0002F15B05AAE75F
:102C1000AA1001234D6893402B434B600346B0E755
:102C200043F001024C610C61E560A5606260E35015
:102C30008AE7542A06D81A0B02F16F07FF0002F147
:102C40006E0590E7B2F5AA7F06D8DA0B02F1780795
:102C5000FF0002F1770586E740F25450824206D821
:102C60009A0C02F17D07FF0002F17C057BE74FF42F
:102C70007E777E2577E743F001016160136063E7AB
:102C8000A4054020AC054020B0094020800A402027
:102C90009368002B73D02DE9F04F8B8983B00C46DD
:102CA00019070090164626D5226922B313F00200B8
:102CB00035682CD04FF00009B04FC846B246B84531
:102CC00043464A4628BF3B460098B8F1000F50D013
:102CD000E169666AB047002858DDDAF808301B1A47
:102CE0008144A8EB0008CAF80830002BE7D1002087
:102CF00003B0BDE8F08F21460098FFF765FC00287F
:102D000040F03381A389356813F00200D2D113F06B
:102D1000010945D14F46019637B39A05D4F808808A
:102D200040F183804745C346C0F0AB8013F4906FF9
:102D300040F0AC802068BA465A46494600F082FD11
:102D4000A2682368A2EB08025B44A2602360019A98
:102D50009368A3EB0A03D144A7EB0A079360002B07
:102D6000C5D0A389002FD8D1D5F800906F68083559
:102D7000D2E7D5F80090D5F8048008359FE7002009
:102D8000704721460098FFF733FD70B3B4F90C305B
:102D900043F040034FF0FF30A38103B0BDE8F08F54
:102DA000814633464E46A8469A464D464EB380B3BA
:102DB000206823696269B145CB4628BFB346984273
:102DC0005F4604D9A36813449B4500F3A68093454E
:102DD0004BDB1346676AE16900982A46B847071E2D
:102DE000D4DDB9EB0709CCD00120DAF80830DB1BC1
:102DF0003D44F61BCAF80830002B3FF478AF002E94
:102E0000D5D108F1080313E9600098460833002E75
:102E1000F9D032460A21284600F02AFC002800F0AA
:102E2000A1800130A0EB0509C2E720682369984220
:102E300002D863699F425DD2B84528BFB846424672
:102E4000494600F0FFFCA3682268A3EB0803424454
:102E5000A36022600BB1C24679E721460098FFF7D4
:102E6000C7FC002892D1C24671E75A46294600F0B5
:102E7000E9FCA2682368A2EB0B025B44A26023601A
:102E8000AFE72068B846BA46BB4655E76269206896
:102E9000216902EB4208A0EB010A08EBD8780AF19D
:102EA00001004FEA680838444045424684BF8046E6
:102EB00042465B0544D51146009800F013F983465D
:102EC000002855D05246216900F022FCA38923F442
:102ED000906343F08003A3810BEB0A00A8EB0A0385
:102EE000C4F810B0C4F814802060A360B846BA4695
:102EF000BB4621E76FF00041B94228BF39464A4638
:102F000091FBF3F10098666A03FB01F3E169B047B6
:102F1000B0F1000A3FF71BAF38E71A462946019384
:102F200000F090FC2268019B00981A442260214620
:102F3000FFF75EFC019B00287FF428AF1F4650E797
:102F4000009800F0E7FC83460028C5D1009D216968
:102F50002846FFF7B7FDB4F90C300C2223F08003AC
:102F60002A6015E706F1010922E74FF0FF30BFE6BE
:102F7000009A0C231360B4F90C3009E700FCFF7FC2
:102F80002DE9F84310F538771FD0884606464FF0F4
:102F900000097D68BC68013D11D4A389012B05F1AE
:102FA000FF3508D9B4F90E3001332146304602D03E
:102FB000C04749EA00096B1C04F16804EDD13F6881
:102FC000002FE6D14846BDE8F883B9464846BDE83B
:102FD000F88300BF044B054A1B685B6B002B08BFDE
:102FE000134693F828017047080040203804402019
:102FF00070B50C46B1F90E10002990B015461E466A
:1030000014DB01AA00F0CCFF00280FDB029A02F4C7
:103010007042A2F50052B2FA82F252094FF4806374
:103020004FF4006032602B6010B070BDA2890023A5
:1030300012F08000336004D0402218462A6010B09D
:1030400070BD4FF480632B6010B070BD8A89920709
:103050000B4606D501F1430201211A601A6159613C
:103060007047F0B583B001AB6A460C460546FFF7E2
:10307000BFFF00990646284600F034F8B4F90C303A
:10308000D0B1019A124F0099EF6343F08003A381FE
:103090002060206161611AB93343A38103B0F0BDA0
:1030A0002846B4F90E1000F08FFFB4F90C30002858
:1030B000F2D043F00103EFE79A05EFD404F14302A5
:1030C00043F002030121A381226022616161E5E7EF
:1030D0001D284000024B0146186800F003B800BFED
:1030E000080040202DE9F04F01F10B06162E83B0A9
:1030F000054640F29E8036F0070600F1BD80B142E1
:1031000000F2BA8000F002FCB6F5FC7FC0F09382BA
:10311000730A00F0B880042B00F27981B30903F13F
:10312000390003F1380EC300BF4F3B44A3F108013F
:103130005C68A14206D10CE0002A80F2AA80E46813
:10314000A14206D0636823F003039A1B0F2AF3DD24
:1031500070463C69DFF8E4E2744500F0AB816368D7
:1031600023F003039A1B0F2A00F39081002AC7F86B
:1031700014E0C7F810E080F29D80B3F5007F80F086
:103180006181DB0803F1010C99107A6857F83C80E3
:10319000C4F8088001238B4007EBCC0113430839A6
:1031A000E1607B6047F83C40C8F80C408210012485
:1031B00094409C4200F28B801C4206D120F0030018
:1031C00064001C4200F10400FAD007EBC009CC46B1
:1031D0008046DCF80C309C4507D16DE1002A80F276
:1031E0007B81DB689C4500F06781596821F0030111
:1031F0008A1B0F2AF2DDD3F80CC0D3F808800093A5
:103200009C19284646F0010642F001055E60C8F8A8
:103210000CC0CCF808807C613C61C4F80CE0C4F8B8
:1032200008E065605A5000F073FB009B03F108044E
:103230001EE0102920D800F069FB10261823022078
:10324000794F3B44A3F108025C68944200F03D8151
:103250006368E168A66823F00303234428465A689C
:10326000F16042F001028E605A6000F051FB0834B8
:10327000204603B0BDE8F08F00240C2320462B60CD
:1032800003B0BDE8F08F40204FF400734FF03F0EC5
:103290004AE72344E1685A68A66842F00102F160F7
:1032A00028468E605A6000F033FB0834204603B095
:1032B000BDE8F08F234428465A6842F001025A6064
:1032C00000F026FB0834204603B0BDE8F08FBC6850
:1032D000636823F00308B04504D3A8EB06030F2B63
:1032E00000F38580DFF85891504BD9F800201B6817
:1032F0000132334404EB080A00F0558103F5805392
:103300000F3323F47F6B2BF00F0B5946284600F048
:10331000A7FC411C024600F0FC80824500F2F780C9
:10332000434B19685944196000F04D81D9F80000E9
:1033300001301BBFA2EB0A0A5144C9F800201960F2
:1033400012F0070100F01581C1F10800C1F58051AC
:103350000244083102EB0B09C9F30B09A1EB09097F
:10336000494628460193009200F07AFC431C9DE8F0
:103370000C0000F04381801A484440F001001968B5
:10338000BA604944BC425060196017D0B8F10F0FC1
:1033900040F2FB806068A8F10C0222F0070204EB07
:1033A000020E00F001004FF0050C10430F2A606080
:1033B000CEF804C0CEF808C000F217811D4BBC68DF
:1033C0001A68914288BF19601B4B1A689142626863
:1033D00088BF196022F003029642A2EB060301D8CF
:1033E0000F2B04DC284600F093FA002440E7A219D2
:1033F00043F0010346F0010666602846BA60536058
:1034000000F086FA0834204603B0BDE8F08F142B94
:1034100071D9542B00F2A380330B03F16F0003F139
:103420006E0EC30080E600BFA4054020800A402045
:10343000500A4020780A40207C0A4020AC054020F9
:10344000AC0940205A0A042A5BD9142A00F2AE8043
:1034500002F15C01C9005B3207EB010C7958ACF159
:10346000080C8C4500F088804A6822F003029342E1
:1034700073D289688C45F7D1DCF80C207B68E26058
:10348000C4F808C09460CCF80C408FE6A11946F04F
:10349000010C42F00106C4F804C028467961396184
:1034A000C1F80CE0C1F808E04E60E25000F030FADC
:1034B0000834DDE67B6879E608F1010818F0030FAF
:1034C0000CF1080C7FF485AE2DE0DC68A34208BF48
:1034D00002303FF43EAEBBE619441C464A68DB6846
:1034E00054F8086F42F001024A602846F3609E607B
:1034F00000F00EFABCE603F15C0003F15B0EC300C2
:1035000012E69A0902F13901C9003832A4E7BC4237
:1035100054D0BC68626822F003025DE759F80839AC
:10352000994540F0868010F0030F00F1FF30F5D18F
:103530007B6823EA04037B6064009C423FF6C7AECD
:10354000002C3FF4C4AE1C4240467FF43EAE640003
:103550001C4200F10400FAD037E68C468CE7B3F544
:10356000AA7F15D8F30B03F1780003F1770EC3009F
:10357000DAE54FF48051EDE67B689210012101FA03
:1035800002F213437B60624679E70123536029E727
:1035900040F25452934222D8B30C03F17D0003F160
:1035A0007C0EC300C0E503F1100BAEE6542A29D807
:1035B0001A0B02F16F01C9006E324DE7204B1968FA
:1035C00059441960B2E6CAF30B0000287FF4AEAE8E
:1035D00008EB0B03BA6843F001035360EEE67F206B
:1035E0004FF47E734FF07E0E9EE504F108012846ED
:1035F0000093FFF767FA009B1968DFE601204FF0A0
:103600000009BCE6B2F5AA7F05D8DA0B02F1780111
:10361000C900773220E740F254518A4205D89A0C0B
:1036200002F17D01C9007C3216E74FF47E717E22E3
:1036300012E77B6880E7F00806F1080300E600BFA8
:10364000500A402082B049B15AB16BB113780B6077
:103650001278101C18BF012002B0704701A9002A7F
:10366000F3D1104602B070476FF00100F4E700BFDD
:1036700001F0FF01102A2BDB10F0070F08D010F823
:10368000013B013A8B422DD010F0070F42B3F6D127
:10369000F0B441EA012141EA014122F007047FF040
:1036A00000070023F0E80256083C85EA010586EA97
:1036B000010685FA47F5A3FA87F586FA47F6A5FAD3
:1036C00087F68EB9EED1F0BC01F0FF0102F00702DF
:1036D00032B110F8013B013A83EA010313B1F8D18A
:1036E0000020704701387047002D06BF354603386B
:1036F000073815F0010F07D1013015F4807F02BFA4
:10370000013015F4C03F0130F0BC0138704700BFF4
:10371000844641EA000313F003036DD1403A41D3DC
:1037200051F8043B40F8043B51F8043B40F8043B9B
:1037300051F8043B40F8043B51F8043B40F8043B8B
:1037400051F8043B40F8043B51F8043B40F8043B7B
:1037500051F8043B40F8043B51F8043B40F8043B6B
:1037600051F8043B40F8043B51F8043B40F8043B5B
:1037700051F8043B40F8043B51F8043B40F8043B4B
:1037800051F8043B40F8043B51F8043B40F8043B3B
:1037900051F8043B40F8043B51F8043B40F8043B2B
:1037A000403ABDD2303211D351F8043B40F8043BCB
:1037B00051F8043B40F8043B51F8043B40F8043B0B
:1037C00051F8043B40F8043B103AEDD20C3205D3DB
:1037D00051F8043B40F8043B043AF9D2043208D0D3
:1037E000D2071CBF11F8013B00F8013B01D30B8845
:1037F00003806046704700BF082A13D38B078DD023
:1038000010F003038AD0C3F10403D21ADB071CBFF4
:1038100011F8013B00F8013B80D331F8023B20F85E
:10382000023B7BE7043AD9D3013A11F8013B00F897
:10383000013BF9D20B7803704B7843708B7883701F
:10384000604670478842F0B50DD98B1898420AD26D
:103850008418002A51D0224613F8014D02F8014D78
:103860009942F9D1F0BD0F2A48D941EA00039B07DC
:1038700046D100F1100401F11003154653F8106C05
:1038800044F8106C53F80C6C44F80C6C53F8086C4A
:1038900044F8086C103D53F8046C44F8046C0F2D88
:1038A00003F1100304F11004E8D8A2F1100323F08F
:1038B0000F0302F00F0E1033BEF1030F194403443F
:1038C00021D91E1F0D467446043C55F8047B46F86A
:1038D000047F032CF8D8AEF1040424F0030404346C
:1038E0002144234402F0030262B1013B0A4411F86F
:1038F000014B03F8014F8A42F9D1F0BD0346F3E7CB
:103900000346F2E7F0BD7246EEE700BF704700BF26
:10391000704700BF002900F095802DE9F04F0D465B
:10392000164683B0804606F10B07FFF7EFFF55F808
:1039300004EC162F2EF00304A5F108093CD8102240
:103940001746BE423DD8944243DAC44B996809EB0E
:103950000400884200F0B480436823F00101014470
:103960004968C9074CD51EF0010F00F09B80314615
:103970004046FFF7B7FB064600283AD055F8043C0E
:1039800023F001034B44A0F108029A4200F0218188
:10399000221F242A00F20781132A00F2DB8003464B
:1039A0002A46116819605168596092689A602946E0
:1039B0004046FFF787F81CE027F00707002F3A463C
:1039C000BFDA00260C233046C8F8003003B0BDE84B
:1039D000F08F2E46E31B0F2B1ED8D9F8043003F0CE
:1039E000010323434C44C9F80430636843F00103E6
:1039F00063604046FFF78CFF304603B0BDE8F08FB0
:103A000023F00303E11891421FDBC36882682E464E
:103A1000D3600C469A60DDE7D9F8042009EB070172
:103A200002F001024C4443F001031743C9F804704B
:103A30004B60636843F00103083163604046FFF761
:103A400041F8D6E71146FFF74DBB1EF0010F8ED1AE
:103A500055F8081CA9EB010ADAF8041021F003015B
:103A60000B442344934225DBC26881685646CA60F2
:103A70009160DAF80C1056F8080F221F242AC16052
:103A8000886000F29480132A6FD92968CAF8081058
:103A90006968CAF80C101B2A00F2A28008350AF1E6
:103AA000100263E055F8083CA9EB030ADAF80410A9
:103AB00021F0030163189342FFF659AF5646D8E749
:103AC000416821F0030BA34407F11000834556DA47
:103AD0001EF0010F7FF44BAF55F8081CA9EB010A4B
:103AE000DAF8041021F003018B445845E2DC564615
:103AF000DAF80C1056F8080F221F242AC1608860DB
:103B000000F28F80132A40F28A802968CAF80810D0
:103B10006968CAF80C101B2A00F28A8008350AF17D
:103B200010022968116069685160A96891600AEB08
:103B30000701ABEB070242F0010299604A60DAF834
:103B4000043003F001031F434046CAF80470FFF736
:103B5000DFFE51E72B6803606B6843601B2A2DD89A
:103B600000F1080305F108021BE7324629681160DD
:103B700069685160A96891601C46D1462AE709EB43
:103B80000701ABEB070B4BF0010299604A6055F857
:103B9000043C03F001031F43404645F8047CFFF753
:103BA000B7FE2E4628E72946FFF74CFEFFE62946DA
:103BB00030461C46D146FFF745FE0BE7AB688360F5
:103BC000EB68C360242A17D000F1100305F110023E
:103BD000E7E650F8043C23F003031C442E46F9E6C4
:103BE000A968CAF81010E968CAF81410242A0CD081
:103BF00010350AF11802B9E72B6903616B6943615B
:103C000005F1180200F11803CBE62A69CAF818205A
:103C10006A69CAF81C2018350AF12002A6E7324664
:103C20007FE7294630460193FFF70CFE019B7EE7B4
:103C3000A968CAF81010E968CAF81410242A03D039
:103C400010350AF118026CE72A69CAF818206A6967
:103C5000CAF81C2018350AF1200262E7A4054020AA
:103C600038B5074C0023054608462360FDF712FCD3
:103C7000431C00D038BD2368002BFBD02B6038BD1F
:103C8000180B402010B50C46B1F90E1000F0C4F925
:103C9000002803DB236D0344236510BDA38923F4AF
:103CA0008053A38110BD00BF2DE9F0411646B1F944
:103CB0000C201F46D3050C46054607D500220223DB
:103CC000B1F90E1000F092F9B4F90C20B4F90E100D
:103CD00022F48052A2813B4632462846BDE8F0419C
:103CE00000F0A4B810B50C46B1F90E1000F07EF942
:103CF000A389421C0EBF23F4805343F480532065F4
:103D0000A38110BDB1F90E1000F0F8B8F8B50D465A
:103D10001446064610B1836B002B4BD0B4F90C202F
:103D2000A369A36091B2080739D52369002B36D067
:103D3000EDB289042F4615D522686169D31A8B42EA
:103D40001CDA0133A168501C0139A1602060157094
:103D500062699A421AD0A389DB0701D50A2D15D0D2
:103D60003846F8BD616E42F4005221F40051A28140
:103D7000226861666169D31A8B42E2DB21463046D4
:103D8000FEF736FD40B922680123DBE721463046C5
:103D9000FEF72EFD0028E3D04FF0FF37E0E7214685
:103DA0003046FEF711FC0028F6D1B4F90C20236947
:103DB00091B2BDE7FEF7B0FDB0E700BFF0B5064633
:103DC00085B01F4689B1104C104D2468646B002CDF
:103DD00008BF2C46D4F8E040A047431C03D1002282
:103DE0008A233A60336005B0F0BD0C460649074AA5
:103DF0000968496B002908BF11462246D1F8E04006
:103E000001A9A047E9E700BF08004020380440208E
:103E100021B1FF2A04D80A70012070470846704774
:103E20008A2303604FF0FF30704700BF70B50D4626
:103E3000084C114606461A46284600232360FCF724
:103E4000D1FD431C00D070BD2368002BFBD0336034
:103E500070BD00BF180B40202DE9F047254C2568A8
:103E6000D5F848410646884692469946C4B36068EC
:103E70001F2817DC431C76B104EB80050122C5F82E
:103E800088A0D4F8881182401143022EC4F888110A
:103E9000C5F808911ED00230636044F820800020ED
:103EA000BDE8F087144B03B34FF4C870FFF712F965
:103EB0000446D0B1D5F84831002780E88800C5F81D
:103EC000484138460123C4F88871C4F88C71002E2B
:103ED000E1D0D1E7D4F88C110A43C4F88C21DAE799
:103EE00005F5A674C5F84841C1E74FF0FF30BDE8BD
:103EF000F08700BFE8434000D530400038B5074C9C
:103F00000023054608462360FDF7E0FA431C00D075
:103F100038BD2368002BFBD02B6038BD180B402028
:103F200070B539B105460C4608B1836B83B3B4F95B
:103F30000C3013B90026304670BD21462846FEF7E6
:103F4000B7FBE36A064633B1E16928469847002883
:103F5000B8BF4FF0FF36A3891B061CD4216B41B1BB
:103F600004F14003994202D02846FEF7ABFD00233E
:103F70002363616C21B12846FEF7A4FD002363642E
:103F8000FEF7D0FC0023A381FEF7CEFC304670BDC7
:103F9000FEF7C2FCCBE721692846FEF793FDDDE77B
:103FA00038B50B46074C05461146184600232360DA
:103FB000FDF78FFA431C00D038BD2368002BFBD0DF
:103FC0002B6038BD180B402038B5074C0023054640
:103FD00008462360FDF782FA431C00D038BD2368F1
:103FE000002BFBD02B6038BD180B402070B50D4660
:103FF000084C114606461A46284600232360FDF762
:104000006FFA431C00D070BD2368002BFBD03360D7
:1040100070BD00BF180B402070B50D46084C11460E
:1040200006461A46284600232360FCF7BDFC431CC5
:1040300000D070BD2368002BFBD0336070BD00BF83
:10404000180B402053B94AB9002908BF00281CBFEB
:104050004FF0FF314FF0FF3000F07AB9ADF1080CAE
:104060006DE904CE00F006F8DDF804E0DDE9022396
:1040700004B070472DE9F0478C460D460446089E73
:10408000002B51D18A4217466DD9B2FA82FEBEF199
:10409000000F0BD0CEF1200C01FA0EF520FA0CFC2B
:1040A00002FA0EF74CEA050C00FA0EF44FEA174A32
:1040B000250CBCFBFAF81FFA87F90AFB18CC45EA75
:1040C0000C4508FB09F3AB420AD9ED1908F1FF32A0
:1040D00080F02381AB4240F22081A8F102083D44E8
:1040E000ED1AA4B2B5FBFAF00AFB105544EA0544F8
:1040F00000FB09F9A14509D9E41900F1FF3380F06B
:104100000A81A14540F2078102383C44A4EB09042E
:1041100040EA08400021002E61D024FA0EF400236A
:1041200034607360BDE8F0878B4207D9002E54D00D
:10413000002186E821000846BDE8F087B3FA83F144
:10414000002940F08E80AB4202D3824200F2FA8016
:10415000841A65EB03050120AC46002E3FD086E8AB
:104160001010BDE8F08712B90127B7FBF2F7B7FAD4
:1041700087FEBEF1000F34D1EB1B3A0C1FFA87FC0F
:104180000121B3FBF2F8250C02FB183345EA034585
:104190000CFB08F3AB4207D9ED1908F1FF3002D24E
:1041A000AB4200F2D1808046ED1AA3B2B5FBF2F02B
:1041B00002FB105543EA05440CFB00FCA44507D95B
:1041C000E41900F1FF3302D2A44500F2B88018468A
:1041D000A4EB0C0440EA08409DE731463046BDE8B8
:1041E000F087CEF1200405FA0EF307FA0EF720FA55
:1041F00004F83A0C25FA04F448EA0308B4FBF2F197
:104200004FEA184502FB11441FFA87FC45EA0445B2
:1042100001FB0CF3AB4200FA0EF409D9ED1901F1E0
:10422000FF3080F08A80AB4240F2878002393D4403
:10423000EB1A1FFA88F5B3FBF2F002FB103345EAE4
:10424000034500FB0CF3AB4207D9ED1900F1FF3831
:104250006FD2AB426DD902383D44EB1A40EA0141BE
:104260008FE7C1F1200722FA07F88B4005FA01F425
:1042700048EA030320FA07FE4FEA134CFD404EEADA
:10428000040EB5FBFCF94FEA1E440CFB19551FFA4E
:1042900083F844EA054509FB08F4AC4202FA01F24E
:1042A00000FA01FA08D9ED1809F1FF3043D2AC4207
:1042B00041D9A9F102091D442D1B1FFA8EFEB5FB41
:1042C000FCF00CFB10554EEA054400FB08F8A04535
:1042D00007D9E41800F1FF3529D2A04527D90238C3
:1042E0001C4440EA0940A4EB0804A0FB02894C45A9
:1042F000C6464D4615D312D056B1BAEB0E0364EB49
:10430000050404FA07F7CB401F43CC4037607460C4
:104310000021BDE8F0871846F8E69046E0E6C24581
:10432000EAD2B8EB020E69EB03050138E4E7284650
:10433000D7E7404691E78146BEE7014678E7023875
:104340003C4445E7084608E7A8F102083D442BE74E
:10435000704700BF25646825642025642D25642DE1
:104360002564203A2054656D7065726174757261C0
:1043700020496E7465726E6120256443203A2025C1
:1043800064200D0A000000002D2D204146454320E9
:1043900054656D70657261747572652053656E73D6
:1043A0006F72204578616D706C65202D2D0D0A2D82
:1043B0002D2053414D4537302D58504C44202D2D44
:1043C0000D0A2D2D20436F6D70696C65643A204194
:1043D000707220323420323031372032313A33316A
:1043E0003A3432202D2D0D00100040200A0000002C
:1043F000303132333435363738394142434445461B
:1044000000000000303132333435363738396162DC
:104410006364656600000000286E756C6C290000FE
:10442000202020202020202020202020202020208C
:10443000303030303030303030303030303030307C
:1044400043000000504F5349580000002E00000068
:104450000020202020202020202028282828282054
:10446000202020202020202020202020202020204C
:1044700020881010101010101010101010101010B4
:1044800010040404040404040404041010101010A4
:10449000101041414141414101010101010101016E
:1044A00001010101010101010101010110101010C0
:1044B0001010424242424242020202020202020240
:1044C0000202020202020202020202021010101094
:1044D00020000000000000000000000000000000BC
:1044E00000000000000000000000000000000000CC
:1044F00000000000000000000000000000000000BC
:1045000000000000000000000000000000000000AB
:10451000000000000000000000000000000000009B
:10452000000000000000000000000000000000008B
:10453000000000000000000000000000000000007B
:10454000000000000000000000000000000000006B
:1045500000000000F8B500BFF8BC08BC9E467047DC
:104560009126400065014000F8B500BFF8BC08BCCA
:084570009E4670474101400026
:08457800FCFAFF7F01000000C6
:104580000100000000093D00100040200000000074
:1045900000000000FC02402064034020CC034020C7
:1045A000000000000000000000000000000000000B
:1045B00000000000000000000000000000000000FB
:1045C00000000000000000000000000000000000EB
:1045D00000000000000000000000000000000000DB
:1045E00000000000000000000000000000000000CB
:1045F00000000000000000000000000000000000BB
:1046000000000000000000000000000000000000AA
:10461000000000000000000000000000000000009A
:10462000000000000000000000000000000000008A
:104630000000000000000000010000000000000079
:104640000E33CDAB34126DE6ECDE05000B0000003E
:10465000000000000000000000000000000000005A
:10466000000000000000000000000000000000004A
:10467000000000000000000000000000000000003A
:10468000000000000000000000000000000000002A
:1049B00000000000000000004300000000000000B4
:1049C00000000000000000000000000000000000E7
:1049D0000000000000000000430000000000000094
:1049E00000000000000000000000000000000000C7
:1049F0000000000000000000430000000000000074
:104A000000000000000000000000000000000000A6
:104A10000000000000000000430000000000000053
:104A20000000000000000000000000000000000086
:104A30000000000000000000430000000000000033
:104A40000000000000000000000000000000000066
:104A50000000000000000000430000000000000013
:104A60000000000000000000000000000000000046
:104A700000000000000000004300000000000000F3
:104A80000000000000000000000000000000000026
:104A90000000000000000000113E400045364000CC
:104AA00000000000504440004C444000844340005B
:104AB00084434000844340008443400084434000DA
:104AC00084434000844340008443400084434000CA
:104AD000FFFFFFFFFFFFFFFFFFFFFFFFFFFF0000E4
:104AE000010041534349490000000000000000005C
:104AF00000000000000000000000000000000000B6
:104B0000000041534349490000000000000000003C
:104B10000000000000000000000000000000000095
:104B2000000000000000000000000000A40540207C
:104B3000A4054020AC054020AC054020B405402031
:104B4000B4054020BC054020BC054020C4054020E1
:104B5000C4054020CC054020CC054020D405402091
:104B6000D4054020DC054020DC054020E405402041
:104B7000E4054020EC054020EC054020F4054020F1
:104B8000F4054020FC054020FC05402004064020A0
:104B9000040640200C0640200C064020140640204D
:104BA000140640201C0640201C06402024064020FD
:104BB000240640202C0640202C06402034064020AD
:104BC000340640203C0640203C064020440640205D
:104BD000440640204C0640204C064020540640200D
:104BE000540640205C0640205C06402064064020BD
:104BF000640640206C0640206C064020740640206D
:104C0000740640207C0640207C064020840640201C
:104C1000840640208C0640208C06402094064020CC
:104C2000940640209C0640209C064020A40640207C
:104C3000A4064020AC064020AC064020B40640202C
:104C4000B4064020BC064020BC064020C4064020DC
:104C5000C4064020CC064020CC064020D40640208C
:104C6000D4064020DC064020DC064020E40640203C
:104C7000E4064020EC064020EC064020F4064020EC
:104C8000F4064020FC064020FC064020040740209B
:104C9000040740200C0740200C0740201407402048
:104CA000140740201C0740201C07402024074020F8
:104CB000240740202C0740202C07402034074020A8
:104CC000340740203C0740203C0740204407402058
:104CD000440740204C0740204C0740205407402008
:104CE000540740205C0740205C07402064074020B8
:104CF000640740206C0740206C0740207407402068
:104D0000740740207C0740207C0740208407402017
:104D1000840740208C0740208C07402094074020C7
:104D2000940740209C0740209C074020A407402077
:104D3000A4074020AC074020AC074020B407402027
:104D4000B4074020BC074020BC074020C4074020D7
:104D5000C4074020CC074020CC074020D407402087
:104D6000D4074020DC074020DC074020E407402037
:104D7000E4074020EC074020EC074020F4074020E7
:104D8000F4074020FC074020FC0740200408402096
:104D9000040840200C0840200C0840201408402043
:104DA000140840201C0840201C08402024084020F3
:104DB000240840202C0840202C08402034084020A3
:104DC000340840203C0840203C0840204408402053
:104DD000440840204C0840204C0840205408402003
:104DE000540840205C0840205C08402064084020B3
:104DF000640840206C0840206C0840207408402063
:104E0000740840207C0840207C0840208408402012
:104E1000840840208C0840208C08402094084020C2
:104E2000940840209C0840209C084020A408402072
:104E3000A4084020AC084020AC084020B408402022
:104E4000B4084020BC084020BC084020C4084020D2
:104E5000C4084020CC084020CC084020D408402082
:104E6000D4084020DC084020DC084020E408402032
:104E7000E4084020EC084020EC084020F4084020E2
:104E8000F4084020FC084020FC0840200409402091
:104E9000040940200C0940200C094020140940203E
:104EA000140940201C0940201C09402024094020EE
:104EB000240940202C0940202C094020340940209E
:104EC000340940203C0940203C094020440940204E
:104ED000440940204C0940204C09402054094020FE
:104EE000540940205C0940205C09402064094020AE
:104EF000640940206C0940206C094020740940205E
:104F0000740940207C0940207C094020840940200D
:104F1000840940208C0940208C09402094094020BD
:104F2000940940209C0940209C094020FFFFFFFF7E
:044F3000000002007B
:040000050040123570
:00000001FF
